{
  "contractName": "MyToken",
  "abi": [
    {
      "inputs": [],
      "stateMutability": "nonpayable",
      "type": "constructor"
    },
    {
      "anonymous": false,
      "inputs": [
        {
          "indexed": true,
          "internalType": "address",
          "name": "owner",
          "type": "address"
        },
        {
          "indexed": true,
          "internalType": "address",
          "name": "spender",
          "type": "address"
        },
        {
          "indexed": false,
          "internalType": "uint256",
          "name": "value",
          "type": "uint256"
        }
      ],
      "name": "Approval",
      "type": "event"
    },
    {
      "anonymous": false,
      "inputs": [
        {
          "indexed": false,
          "internalType": "uint256",
          "name": "tokenAmountSent",
          "type": "uint256"
        },
        {
          "indexed": false,
          "internalType": "uint256",
          "name": "ethAmountSent",
          "type": "uint256"
        },
        {
          "indexed": false,
          "internalType": "uint256",
          "name": "liquidity",
          "type": "uint256"
        }
      ],
      "name": "LiquidityAdded",
      "type": "event"
    },
    {
      "anonymous": false,
      "inputs": [
        {
          "indexed": true,
          "internalType": "address",
          "name": "previousManager",
          "type": "address"
        },
        {
          "indexed": true,
          "internalType": "address",
          "name": "newManager",
          "type": "address"
        }
      ],
      "name": "ManagementTransferred",
      "type": "event"
    },
    {
      "anonymous": false,
      "inputs": [
        {
          "indexed": true,
          "internalType": "address",
          "name": "previousOwner",
          "type": "address"
        },
        {
          "indexed": true,
          "internalType": "address",
          "name": "newOwner",
          "type": "address"
        }
      ],
      "name": "OwnershipTransferred",
      "type": "event"
    },
    {
      "anonymous": false,
      "inputs": [
        {
          "indexed": true,
          "internalType": "address",
          "name": "router",
          "type": "address"
        }
      ],
      "name": "RouterSet",
      "type": "event"
    },
    {
      "anonymous": false,
      "inputs": [
        {
          "indexed": false,
          "internalType": "uint256",
          "name": "tokensSwapped",
          "type": "uint256"
        },
        {
          "indexed": false,
          "internalType": "uint256",
          "name": "ethReceived",
          "type": "uint256"
        },
        {
          "indexed": false,
          "internalType": "uint256",
          "name": "tokensIntoLiquidity",
          "type": "uint256"
        }
      ],
      "name": "SwapAndLiquify",
      "type": "event"
    },
    {
      "anonymous": false,
      "inputs": [
        {
          "indexed": false,
          "internalType": "bool",
          "name": "enabled",
          "type": "bool"
        }
      ],
      "name": "SwapAndLiquifyEnabledUpdated",
      "type": "event"
    },
    {
      "anonymous": false,
      "inputs": [
        {
          "indexed": true,
          "internalType": "address",
          "name": "from",
          "type": "address"
        },
        {
          "indexed": true,
          "internalType": "address",
          "name": "to",
          "type": "address"
        },
        {
          "indexed": false,
          "internalType": "uint256",
          "name": "value",
          "type": "uint256"
        }
      ],
      "name": "Transfer",
      "type": "event"
    },
    {
      "inputs": [
        {
          "internalType": "address",
          "name": "owner",
          "type": "address"
        },
        {
          "internalType": "address",
          "name": "spender",
          "type": "address"
        }
      ],
      "name": "allowance",
      "outputs": [
        {
          "internalType": "uint256",
          "name": "",
          "type": "uint256"
        }
      ],
      "stateMutability": "view",
      "type": "function"
    },
    {
      "inputs": [
        {
          "internalType": "address",
          "name": "spender",
          "type": "address"
        },
        {
          "internalType": "uint256",
          "name": "amount",
          "type": "uint256"
        }
      ],
      "name": "approve",
      "outputs": [
        {
          "internalType": "bool",
          "name": "",
          "type": "bool"
        }
      ],
      "stateMutability": "nonpayable",
      "type": "function"
    },
    {
      "inputs": [
        {
          "internalType": "address",
          "name": "account",
          "type": "address"
        }
      ],
      "name": "balanceOf",
      "outputs": [
        {
          "internalType": "uint256",
          "name": "",
          "type": "uint256"
        }
      ],
      "stateMutability": "view",
      "type": "function"
    },
    {
      "inputs": [
        {
          "internalType": "uint256",
          "name": "amount",
          "type": "uint256"
        }
      ],
      "name": "burn",
      "outputs": [],
      "stateMutability": "nonpayable",
      "type": "function"
    },
    {
      "inputs": [],
      "name": "decimals",
      "outputs": [
        {
          "internalType": "uint8",
          "name": "",
          "type": "uint8"
        }
      ],
      "stateMutability": "pure",
      "type": "function"
    },
    {
      "inputs": [
        {
          "internalType": "address",
          "name": "spender",
          "type": "address"
        },
        {
          "internalType": "uint256",
          "name": "subtractedValue",
          "type": "uint256"
        }
      ],
      "name": "decreaseAllowance",
      "outputs": [
        {
          "internalType": "bool",
          "name": "",
          "type": "bool"
        }
      ],
      "stateMutability": "nonpayable",
      "type": "function"
    },
    {
      "inputs": [
        {
          "internalType": "address",
          "name": "account",
          "type": "address"
        }
      ],
      "name": "excludeFromReward",
      "outputs": [],
      "stateMutability": "nonpayable",
      "type": "function"
    },
    {
      "inputs": [],
      "name": "getUnlockTime",
      "outputs": [
        {
          "internalType": "uint256",
          "name": "",
          "type": "uint256"
        }
      ],
      "stateMutability": "view",
      "type": "function"
    },
    {
      "inputs": [
        {
          "internalType": "address",
          "name": "account",
          "type": "address"
        }
      ],
      "name": "includeInReward",
      "outputs": [],
      "stateMutability": "nonpayable",
      "type": "function"
    },
    {
      "inputs": [
        {
          "internalType": "address",
          "name": "spender",
          "type": "address"
        },
        {
          "internalType": "uint256",
          "name": "addedValue",
          "type": "uint256"
        }
      ],
      "name": "increaseAllowance",
      "outputs": [
        {
          "internalType": "bool",
          "name": "",
          "type": "bool"
        }
      ],
      "stateMutability": "nonpayable",
      "type": "function"
    },
    {
      "inputs": [
        {
          "internalType": "address",
          "name": "account",
          "type": "address"
        }
      ],
      "name": "isExcludedFromFee",
      "outputs": [
        {
          "internalType": "bool",
          "name": "",
          "type": "bool"
        }
      ],
      "stateMutability": "view",
      "type": "function"
    },
    {
      "inputs": [
        {
          "internalType": "address",
          "name": "account",
          "type": "address"
        }
      ],
      "name": "isExcludedFromReward",
      "outputs": [
        {
          "internalType": "bool",
          "name": "",
          "type": "bool"
        }
      ],
      "stateMutability": "view",
      "type": "function"
    },
    {
      "inputs": [
        {
          "internalType": "uint256",
          "name": "time",
          "type": "uint256"
        }
      ],
      "name": "lock",
      "outputs": [],
      "stateMutability": "nonpayable",
      "type": "function"
    },
    {
      "inputs": [],
      "name": "manager",
      "outputs": [
        {
          "internalType": "address",
          "name": "",
          "type": "address"
        }
      ],
      "stateMutability": "view",
      "type": "function"
    },
    {
      "inputs": [],
      "name": "name",
      "outputs": [
        {
          "internalType": "string",
          "name": "",
          "type": "string"
        }
      ],
      "stateMutability": "pure",
      "type": "function"
    },
    {
      "inputs": [],
      "name": "owner",
      "outputs": [
        {
          "internalType": "address",
          "name": "",
          "type": "address"
        }
      ],
      "stateMutability": "view",
      "type": "function"
    },
    {
      "inputs": [
        {
          "internalType": "uint256",
          "name": "tAmount",
          "type": "uint256"
        },
        {
          "internalType": "bool",
          "name": "deductTransferFee",
          "type": "bool"
        }
      ],
      "name": "reflectionFromToken",
      "outputs": [
        {
          "internalType": "uint256",
          "name": "",
          "type": "uint256"
        }
      ],
      "stateMutability": "view",
      "type": "function"
    },
    {
      "inputs": [],
      "name": "renounceOwnership",
      "outputs": [],
      "stateMutability": "nonpayable",
      "type": "function"
    },
    {
      "inputs": [
        {
          "internalType": "address",
          "name": "account",
          "type": "address"
        },
        {
          "internalType": "bool",
          "name": "value",
          "type": "bool"
        }
      ],
      "name": "setExcludedFromFee",
      "outputs": [],
      "stateMutability": "nonpayable",
      "type": "function"
    },
    {
      "inputs": [
        {
          "internalType": "bool",
          "name": "value",
          "type": "bool"
        }
      ],
      "name": "setPreseableEnabled",
      "outputs": [],
      "stateMutability": "nonpayable",
      "type": "function"
    },
    {
      "inputs": [
        {
          "internalType": "address",
          "name": "router",
          "type": "address"
        }
      ],
      "name": "setRouterAddress",
      "outputs": [],
      "stateMutability": "nonpayable",
      "type": "function"
    },
    {
      "inputs": [
        {
          "internalType": "bool",
          "name": "enabled",
          "type": "bool"
        }
      ],
      "name": "setSwapAndLiquifyEnabled",
      "outputs": [],
      "stateMutability": "nonpayable",
      "type": "function"
    },
    {
      "inputs": [],
      "name": "symbol",
      "outputs": [
        {
          "internalType": "string",
          "name": "",
          "type": "string"
        }
      ],
      "stateMutability": "pure",
      "type": "function"
    },
    {
      "inputs": [],
      "name": "totalSupply",
      "outputs": [
        {
          "internalType": "uint256",
          "name": "",
          "type": "uint256"
        }
      ],
      "stateMutability": "pure",
      "type": "function"
    },
    {
      "inputs": [
        {
          "internalType": "address",
          "name": "recipient",
          "type": "address"
        },
        {
          "internalType": "uint256",
          "name": "amount",
          "type": "uint256"
        }
      ],
      "name": "transfer",
      "outputs": [
        {
          "internalType": "bool",
          "name": "",
          "type": "bool"
        }
      ],
      "stateMutability": "nonpayable",
      "type": "function"
    },
    {
      "inputs": [
        {
          "internalType": "address",
          "name": "sender",
          "type": "address"
        },
        {
          "internalType": "address",
          "name": "recipient",
          "type": "address"
        },
        {
          "internalType": "uint256",
          "name": "amount",
          "type": "uint256"
        }
      ],
      "name": "transferFrom",
      "outputs": [
        {
          "internalType": "bool",
          "name": "",
          "type": "bool"
        }
      ],
      "stateMutability": "nonpayable",
      "type": "function"
    },
    {
      "inputs": [
        {
          "internalType": "address",
          "name": "newManager",
          "type": "address"
        }
      ],
      "name": "transferManagement",
      "outputs": [],
      "stateMutability": "nonpayable",
      "type": "function"
    },
    {
      "inputs": [
        {
          "internalType": "address",
          "name": "newOwner",
          "type": "address"
        }
      ],
      "name": "transferOwnership",
      "outputs": [],
      "stateMutability": "nonpayable",
      "type": "function"
    },
    {
      "inputs": [],
      "name": "unlock",
      "outputs": [],
      "stateMutability": "nonpayable",
      "type": "function"
    },
    {
      "inputs": [
        {
          "internalType": "address payable",
          "name": "recipient",
          "type": "address"
        }
      ],
      "name": "withdrawLockedEth",
      "outputs": [],
      "stateMutability": "nonpayable",
      "type": "function"
    },
    {
      "stateMutability": "payable",
      "type": "receive"
    }
  ],
  "bytecode": "0x60806040526006600a620000149190620019ae565b6311de784a62000025919062001aeb565b60001962000034919062001c20565b60001962000043919062001b4c565b60045573f57c4a1383446998630d6aa0d15ca74f88b035a5600560006101000a81548173ffffffffffffffffffffffffffffffffffffffff021916908373ffffffffffffffffffffffffffffffffffffffff160217905550735ab0fa648d0c96b1b8ec2759c0ae996963e945d5600660006101000a81548173ffffffffffffffffffffffffffffffffffffffff021916908373ffffffffffffffffffffffffffffffffffffffff160217905550640602214076600760006101000a81548173ffffffffffffffffffffffffffffffffffffffff021916908373ffffffffffffffffffffffffffffffffffffffff160217905550733277dfc7f136747b42ee01b97af9c610aa6631e1600860006101000a81548173ffffffffffffffffffffffffffffffffffffffff021916908373ffffffffffffffffffffffffffffffffffffffff16021790555073e71f74607ed7d3f070d94a6ee820086472e84664600960006101000a81548173ffffffffffffffffffffffffffffffffffffffff021916908373ffffffffffffffffffffffffffffffffffffffff1602179055507305ff2b0db69458a0750badebc4f9e13add608c7f601360016101000a81548173ffffffffffffffffffffffffffffffffffffffff021916908373ffffffffffffffffffffffffffffffffffffffff1602179055507310ed43c718714eb63d5aa57b78b54704e256024e601460006101000a81548173ffffffffffffffffffffffffffffffffffffffff021916908373ffffffffffffffffffffffffffffffffffffffff160217905550739ac64cc6e4415144c455bd8e4837fea55603e5c3601560006101000a81548173ffffffffffffffffffffffffffffffffffffffff021916908373ffffffffffffffffffffffffffffffffffffffff1602179055506001601760156101000a81548160ff0219169083151502179055503480156200030757600080fd5b506000806200031b6200077960201b60201c565b9050806000806101000a81548173ffffffffffffffffffffffffffffffffffffffff021916908373ffffffffffffffffffffffffffffffffffffffff1602179055508073ffffffffffffffffffffffffffffffffffffffff16600073ffffffffffffffffffffffffffffffffffffffff167f8be0079c531659141344cd1fd0a4f28419497f9722a3daafe3b4186f6b6457e060405160405180910390a3506000620003cb6200077960201b60201c565b905080600360006101000a81548173ffffffffffffffffffffffffffffffffffffffff021916908373ffffffffffffffffffffffffffffffffffffffff1602179055508073ffffffffffffffffffffffffffffffffffffffff16600073ffffffffffffffffffffffffffffffffffffffff167f80f15e9dbc60884fdb59fb8ed4fc48a9a689e028f055e893ed45ca5be67c5c8560405160405180910390a3506200047a6200078160201b60201c565b600454600c600062000491620008bf60201b60201c565b73ffffffffffffffffffffffffffffffffffffffff1673ffffffffffffffffffffffffffffffffffffffff168152602001908152602001600020819055506001600f6000620004e5620008bf60201b60201c565b73ffffffffffffffffffffffffffffffffffffffff1673ffffffffffffffffffffffffffffffffffffffff16815260200190815260200160002060006101000a81548160ff0219169083151502179055506001600f60003073ffffffffffffffffffffffffffffffffffffffff1673ffffffffffffffffffffffffffffffffffffffff16815260200190815260200160002060006101000a81548160ff021916908315150217905550620005ae620005a2620008bf60201b60201c565b620008e860201b60201c565b620005bf30620008e860201b60201c565b620005cf620008bf60201b60201c565b73ffffffffffffffffffffffffffffffffffffffff16600073ffffffffffffffffffffffffffffffffffffffff167fddf252ad1be2c89b69c2b068fc378daa952ba7f163c4a11628f55a4df523b3ef6006600a6200062e9190620019ae565b6311de784a6200063f919062001aeb565b6040516200064e919062001890565b60405180910390a3620006c68160646006600a6200066d9190620019ae565b6311de784a6200067e919062001aeb565b6200068a91906200191b565b6103e86006600a6200069d9190620019ae565b6311de784a620006ae919062001aeb565b620006ba91906200191b565b62000a8360201b60201c565b620006f9601760009054906101000a900473ffffffffffffffffffffffffffffffffffffffff16620008e860201b60201c565b6200072c600760009054906101000a900473ffffffffffffffffffffffffffffffffffffffff16620008e860201b60201c565b506200077362000741620008bf60201b60201c565b601660009054906101000a900473ffffffffffffffffffffffffffffffffffffffff1660001962000ca360201b60201c565b62001dca565b600033905090565b620007966003600a3062000e7660201b60201c565b620007cd60016005600760009054906101000a900473ffffffffffffffffffffffffffffffffffffffff1662000e7660201b60201c565b620007e2600260143062000e7660201b60201c565b62000818600460058060009054906101000a900473ffffffffffffffffffffffffffffffffffffffff1662000e7660201b60201c565b6200084f60046012600660009054906101000a900473ffffffffffffffffffffffffffffffffffffffff1662000e7660201b60201c565b6200088660056001600860009054906101000a900473ffffffffffffffffffffffffffffffffffffffff1662000e7660201b60201c565b620008bd60056001600960009054906101000a900473ffffffffffffffffffffffffffffffffffffffff1662000e7660201b60201c565b565b60008060009054906101000a900473ffffffffffffffffffffffffffffffffffffffff16905090565b6000600c60008373ffffffffffffffffffffffffffffffffffffffff1673ffffffffffffffffffffffffffffffffffffffff168152602001908152602001600020541115620009c55762000981600c60008373ffffffffffffffffffffffffffffffffffffffff1673ffffffffffffffffffffffffffffffffffffffff1681526020019081526020016000205462000fe660201b60201c565b600d60008373ffffffffffffffffffffffffffffffffffffffff1673ffffffffffffffffffffffffffffffffffffffff168152602001908152602001600020819055505b6001601060008373ffffffffffffffffffffffffffffffffffffffff1673ffffffffffffffffffffffffffffffffffffffff16815260200190815260200160002060006101000a81548160ff0219169083151502179055506011819080600181540180825580915050600190039060005260206000200160009091909190916101000a81548173ffffffffffffffffffffffffffffffffffffffff021916908373ffffffffffffffffffffffffffffffffffffffff16021790555050565b82601360006101000a81548160ff0219169083600281111562000acf577f4e487b7100000000000000000000000000000000000000000000000000000000600052602160045260246000fd5b02179055506001600281111562000b0f577f4e487b7100000000000000000000000000000000000000000000000000000000600052602160045260246000fd5b601360009054906101000a900460ff16600281111562000b58577f4e487b7100000000000000000000000000000000000000000000000000000000600052602160045260246000fd5b141562000b985762000b92601360019054906101000a900473ffffffffffffffffffffffffffffffffffffffff166200106660201b60201c565b62000c90565b60028081111562000bd2577f4e487b7100000000000000000000000000000000000000000000000000000000600052602160045260246000fd5b601360009054906101000a900460ff16600281111562000c1b577f4e487b7100000000000000000000000000000000000000000000000000000000600052602160045260246000fd5b141562000c5b5762000c55601460009054906101000a900473ffffffffffffffffffffffffffffffffffffffff166200106660201b60201c565b62000c8f565b62000c8e601560009054906101000a900473ffffffffffffffffffffffffffffffffffffffff166200106660201b60201c565b5b5b8160188190555080601981905550505050565b600073ffffffffffffffffffffffffffffffffffffffff168373ffffffffffffffffffffffffffffffffffffffff16141562000d16576040517f08c379a000000000000000000000000000000000000000000000000000000000815260040162000d0d906200182a565b60405180910390fd5b600073ffffffffffffffffffffffffffffffffffffffff168273ffffffffffffffffffffffffffffffffffffffff16141562000d89576040517f08c379a000000000000000000000000000000000000000000000000000000000815260040162000d80906200186e565b60405180910390fd5b80600e60008573ffffffffffffffffffffffffffffffffffffffff1673ffffffffffffffffffffffffffffffffffffffff16815260200190815260200160002060008473ffffffffffffffffffffffffffffffffffffffff1673ffffffffffffffffffffffffffffffffffffffff168152602001908152602001600020819055508173ffffffffffffffffffffffffffffffffffffffff168373ffffffffffffffffffffffffffffffffffffffff167f8c5be1e5ebec7d5bd14f71427d1e84f3dd0314c0f7b2291e5b200ac8c7c3b9258360405162000e69919062001890565b60405180910390a3505050565b600a604051806080016040528085600581111562000ebd577f4e487b7100000000000000000000000000000000000000000000000000000000600052602160045260246000fd5b81526020018481526020018373ffffffffffffffffffffffffffffffffffffffff1681526020016000815250908060018154018082558091505060019003906000526020600020906004020160009091909190915060008201518160000160006101000a81548160ff0219169083600581111562000f64577f4e487b7100000000000000000000000000000000000000000000000000000000600052602160045260246000fd5b02179055506020820151816001015560408201518160020160006101000a81548173ffffffffffffffffffffffffffffffffffffffff021916908373ffffffffffffffffffffffffffffffffffffffff16021790555060608201518160030155505081600b600082825462000fda9190620018be565b92505081905550505050565b600060045482111562001030576040517f08c379a000000000000000000000000000000000000000000000000000000000815260040162001027906200184c565b60405180910390fd5b600062001042620012c860201b60201c565b90506200105e81846200130260201b620022cf1790919060201c565b915050919050565b60008190508073ffffffffffffffffffffffffffffffffffffffff1663c45a01556040518163ffffffff1660e01b815260040160206040518083038186803b158015620010b257600080fd5b505afa158015620010c7573d6000803e3d6000fd5b505050506040513d601f19601f82011682018060405250810190620010ed91906200173a565b73ffffffffffffffffffffffffffffffffffffffff1663c9c65396308373ffffffffffffffffffffffffffffffffffffffff1663ad5c46486040518163ffffffff1660e01b815260040160206040518083038186803b1580156200115057600080fd5b505afa15801562001165573d6000803e3d6000fd5b505050506040513d601f19601f820116820180604052508101906200118b91906200173a565b6040518363ffffffff1660e01b8152600401620011aa929190620017fd565b602060405180830381600087803b158015620011c557600080fd5b505af1158015620011da573d6000803e3d6000fd5b505050506040513d601f19601f820116820180604052508101906200120091906200173a565b601760006101000a81548173ffffffffffffffffffffffffffffffffffffffff021916908373ffffffffffffffffffffffffffffffffffffffff16021790555080601660006101000a81548173ffffffffffffffffffffffffffffffffffffffff021916908373ffffffffffffffffffffffffffffffffffffffff1602179055508173ffffffffffffffffffffffffffffffffffffffff167fc6b438e6a8a59579ce6a4406cbd203b740e0d47b458aae6596339bcd40c40d1560405160405180910390a25050565b6000806000620012dd6200131a60201b60201c565b91509150620012fb81836200130260201b620022cf1790919060201c565b9250505090565b600081836200131291906200191b565b905092915050565b6000806000600454905060006006600a620013369190620019ae565b6311de784a62001347919062001aeb565b905060005b6011805490508110156200167d5782600c6000601184815481106200139a577f4e487b7100000000000000000000000000000000000000000000000000000000600052603260045260246000fd5b9060005260206000200160009054906101000a900473ffffffffffffffffffffffffffffffffffffffff1673ffffffffffffffffffffffffffffffffffffffff1673ffffffffffffffffffffffffffffffffffffffff168152602001908152602001600020541180620014b0575081600d60006011848154811062001448577f4e487b7100000000000000000000000000000000000000000000000000000000600052603260045260246000fd5b9060005260206000200160009054906101000a900473ffffffffffffffffffffffffffffffffffffffff1673ffffffffffffffffffffffffffffffffffffffff1673ffffffffffffffffffffffffffffffffffffffff16815260200190815260200160002054115b15620014e7576004546006600a620014c99190620019ae565b6311de784a620014da919062001aeb565b9450945050505062001707565b620015a5600c6000601184815481106200152a577f4e487b7100000000000000000000000000000000000000000000000000000000600052603260045260246000fd5b9060005260206000200160009054906101000a900473ffffffffffffffffffffffffffffffffffffffff1673ffffffffffffffffffffffffffffffffffffffff1673ffffffffffffffffffffffffffffffffffffffff16815260200190815260200160002054846200170b60201b620022e51790919060201c565b925062001665600d600060118481548110620015ea577f4e487b7100000000000000000000000000000000000000000000000000000000600052603260045260246000fd5b9060005260206000200160009054906101000a900473ffffffffffffffffffffffffffffffffffffffff1673ffffffffffffffffffffffffffffffffffffffff1673ffffffffffffffffffffffffffffffffffffffff16815260200190815260200160002054836200170b60201b620022e51790919060201c565b91508080620016749062001bd2565b9150506200134c565b506000811480620016c85750620016c56006600a6200169d9190620019ae565b6311de784a620016ae919062001aeb565b6004546200130260201b620022cf1790919060201c565b82105b15620016fe576004546006600a620016e19190620019ae565b6311de784a620016f2919062001aeb565b93509350505062001707565b81819350935050505b9091565b600081836200171b919062001b4c565b905092915050565b600081519050620017348162001db0565b92915050565b6000602082840312156200174d57600080fd5b60006200175d8482850162001723565b91505092915050565b620017718162001b87565b82525050565b600062001786602b83620018ad565b9150620017938262001cc3565b604082019050919050565b6000620017ad602a83620018ad565b9150620017ba8262001d12565b604082019050919050565b6000620017d4602983620018ad565b9150620017e18262001d61565b604082019050919050565b620017f78162001bbb565b82525050565b600060408201905062001814600083018562001766565b62001823602083018462001766565b9392505050565b60006020820190508181036000830152620018458162001777565b9050919050565b6000602082019050818103600083015262001867816200179e565b9050919050565b600060208201905081810360008301526200188981620017c5565b9050919050565b6000602082019050620018a76000830184620017ec565b92915050565b600082825260208201905092915050565b6000620018cb8262001bbb565b9150620018d88362001bbb565b9250827fffffffffffffffffffffffffffffffffffffffffffffffffffffffffffffffff0382111562001910576200190f62001c58565b5b828201905092915050565b6000620019288262001bbb565b9150620019358362001bbb565b92508262001948576200194762001c87565b5b828204905092915050565b6000808291508390505b6001851115620019a5578086048111156200197d576200197c62001c58565b5b60018516156200198d5780820291505b80810290506200199d8562001cb6565b94506200195d565b94509492505050565b6000620019bb8262001bbb565b9150620019c88362001bc5565b9250620019f77fffffffffffffffffffffffffffffffffffffffffffffffffffffffffffffffff8484620019ff565b905092915050565b60008262001a11576001905062001ae4565b8162001a21576000905062001ae4565b816001811462001a3a576002811462001a455762001a7b565b600191505062001ae4565b60ff84111562001a5a5762001a5962001c58565b5b8360020a91508482111562001a745762001a7362001c58565b5b5062001ae4565b5060208310610133831016604e8410600b841016171562001ab55782820a90508381111562001aaf5762001aae62001c58565b5b62001ae4565b62001ac4848484600162001953565b9250905081840481111562001ade5762001add62001c58565b5b81810290505b9392505050565b600062001af88262001bbb565b915062001b058362001bbb565b9250817fffffffffffffffffffffffffffffffffffffffffffffffffffffffffffffffff048311821515161562001b415762001b4062001c58565b5b828202905092915050565b600062001b598262001bbb565b915062001b668362001bbb565b92508282101562001b7c5762001b7b62001c58565b5b828203905092915050565b600062001b948262001b9b565b9050919050565b600073ffffffffffffffffffffffffffffffffffffffff82169050919050565b6000819050919050565b600060ff82169050919050565b600062001bdf8262001bbb565b91507fffffffffffffffffffffffffffffffffffffffffffffffffffffffffffffffff82141562001c155762001c1462001c58565b5b600182019050919050565b600062001c2d8262001bbb565b915062001c3a8362001bbb565b92508262001c4d5762001c4c62001c87565b5b828206905092915050565b7f4e487b7100000000000000000000000000000000000000000000000000000000600052601160045260246000fd5b7f4e487b7100000000000000000000000000000000000000000000000000000000600052601260045260246000fd5b60008160011c9050919050565b7f42617365526669546f6b656e3a20617070726f76652066726f6d20746865207a60008201527f65726f2061646472657373000000000000000000000000000000000000000000602082015250565b7f416d6f756e74206d757374206265206c657373207468616e20746f74616c207260008201527f65666c656374696f6e7300000000000000000000000000000000000000000000602082015250565b7f42617365526669546f6b656e3a20617070726f766520746f20746865207a657260008201527f6f20616464726573730000000000000000000000000000000000000000000000602082015250565b62001dbb8162001b87565b811462001dc757600080fd5b50565b615eb28062001dda6000396000f3fe6080604052600436106101d15760003560e01c806370a08231116100f7578063a69df4b511610095578063dd46706411610064578063dd467064146106a5578063dd62ed3e146106ce578063e4edf8521461070b578063f2fde38b14610734576101d8565b8063a69df4b5146105ff578063a9059cbb14610616578063b7671a0d14610653578063c49b9a801461067c576101d8565b806388f82020116100d157806388f820201461052f5780638da5cb5b1461056c57806395d89b4114610597578063a457c2d7146105c2576101d8565b806370a08231146104b2578063715018a6146104ef57806374778cdc14610506576101d8565b806341cb87fc1161016f57806352390c021161013e57806352390c02146103f85780635342acb414610421578063602bc62b1461045e5780636612e66f14610489576101d8565b806341cb87fc1461033e57806342966c68146103675780634549b03914610390578063481c6a75146103cd576101d8565b806323b872dd116101ab57806323b872dd14610270578063313ce567146102ad5780633685d419146102d85780633950935114610301576101d8565b806306fdde03146101dd578063095ea7b31461020857806318160ddd14610245576101d8565b366101d857005b600080fd5b3480156101e957600080fd5b506101f261075d565b6040516101ff9190614f63565b60405180910390f35b34801561021457600080fd5b5061022f600480360381019061022a919061495c565b61079a565b60405161023c9190614f48565b60405180910390f35b34801561025157600080fd5b5061025a6107b8565b6040516102679190615265565b60405180910390f35b34801561027c57600080fd5b50610297600480360381019061029291906148d1565b6107dc565b6040516102a49190614f48565b60405180910390f35b3480156102b957600080fd5b506102c26108b5565b6040516102cf9190615311565b60405180910390f35b3480156102e457600080fd5b506102ff60048036038101906102fa919061481a565b6108be565b005b34801561030d57600080fd5b506103286004803603810190610323919061495c565b610ca5565b6040516103359190614f48565b60405180910390f35b34801561034a57600080fd5b506103656004803603810190610360919061481a565b610d58565b005b34801561037357600080fd5b5061038e600480360381019061038991906149c1565b610dfb565b005b34801561039c57600080fd5b506103b760048036038101906103b291906149ea565b611104565b6040516103c49190615265565b60405180910390f35b3480156103d957600080fd5b506103e26111b3565b6040516103ef9190614ea3565b60405180910390f35b34801561040457600080fd5b5061041f600480360381019061041a919061481a565b6111dd565b005b34801561042d57600080fd5b506104486004803603810190610443919061481a565b61130b565b6040516104559190614f48565b60405180910390f35b34801561046a57600080fd5b50610473611361565b6040516104809190615265565b60405180910390f35b34801561049557600080fd5b506104b060048036038101906104ab9190614920565b61136b565b005b3480156104be57600080fd5b506104d960048036038101906104d4919061481a565b61145b565b6040516104e69190615265565b60405180910390f35b3480156104fb57600080fd5b50610504611546565b005b34801561051257600080fd5b5061052d60048036038101906105289190614998565b611699565b005b34801561053b57600080fd5b506105566004803603810190610551919061481a565b61174d565b6040516105639190614f48565b60405180910390f35b34801561057857600080fd5b506105816117a3565b60405161058e9190614ea3565b60405180910390f35b3480156105a357600080fd5b506105ac6117cc565b6040516105b99190614f63565b60405180910390f35b3480156105ce57600080fd5b506105e960048036038101906105e4919061495c565b611809565b6040516105f69190614f48565b60405180910390f35b34801561060b57600080fd5b506106146118d6565b005b34801561062257600080fd5b5061063d6004803603810190610638919061495c565b611aaa565b60405161064a9190614f48565b60405180910390f35b34801561065f57600080fd5b5061067a6004803603810190610675919061486c565b611ac8565b005b34801561068857600080fd5b506106a3600480360381019061069e9190614998565b611c6e565b005b3480156106b157600080fd5b506106cc60048036038101906106c791906149c1565b611d68565b005b3480156106da57600080fd5b506106f560048036038101906106f09190614895565b611f2f565b6040516107029190615265565b60405180910390f35b34801561071757600080fd5b50610732600480360381019061072d919061481a565b611fb6565b005b34801561074057600080fd5b5061075b6004803603810190610756919061481a565b61210d565b005b60606040518060400160405280600781526020017f4d79546f6b656e00000000000000000000000000000000000000000000000000815250905090565b60006107ae6107a76122fb565b8484612303565b6001905092915050565b60006006600a6107c8919061545b565b6311de784a6107d79190615579565b905090565b60006107e98484846124ce565b6108aa846107f56122fb565b6108a585604051806060016040528060288152602001615e3060289139600e60008b73ffffffffffffffffffffffffffffffffffffffff1673ffffffffffffffffffffffffffffffffffffffff168152602001908152602001600020600061085b6122fb565b73ffffffffffffffffffffffffffffffffffffffff1673ffffffffffffffffffffffffffffffffffffffff168152602001908152602001600020546128eb9092919063ffffffff16565b612303565b600190509392505050565b60006006905090565b6108c66122fb565b73ffffffffffffffffffffffffffffffffffffffff1660008054906101000a900473ffffffffffffffffffffffffffffffffffffffff1673ffffffffffffffffffffffffffffffffffffffff1614610953576040517f08c379a000000000000000000000000000000000000000000000000000000000815260040161094a90615165565b60405180910390fd5b601060008273ffffffffffffffffffffffffffffffffffffffff1673ffffffffffffffffffffffffffffffffffffffff16815260200190815260200160002060009054906101000a900460ff166109df576040517f08c379a00000000000000000000000000000000000000000000000000000000081526004016109d690615065565b60405180910390fd5b60005b601180549050811015610ca1578173ffffffffffffffffffffffffffffffffffffffff1660118281548110610a40577f4e487b7100000000000000000000000000000000000000000000000000000000600052603260045260246000fd5b9060005260206000200160009054906101000a900473ffffffffffffffffffffffffffffffffffffffff1673ffffffffffffffffffffffffffffffffffffffff161415610c8e5760116001601180549050610a9b91906155d3565b81548110610ad2577f4e487b7100000000000000000000000000000000000000000000000000000000600052603260045260246000fd5b9060005260206000200160009054906101000a900473ffffffffffffffffffffffffffffffffffffffff1660118281548110610b37577f4e487b7100000000000000000000000000000000000000000000000000000000600052603260045260246000fd5b9060005260206000200160006101000a81548173ffffffffffffffffffffffffffffffffffffffff021916908373ffffffffffffffffffffffffffffffffffffffff1602179055506000600d60008473ffffffffffffffffffffffffffffffffffffffff1673ffffffffffffffffffffffffffffffffffffffff168152602001908152602001600020819055506000601060008473ffffffffffffffffffffffffffffffffffffffff1673ffffffffffffffffffffffffffffffffffffffff16815260200190815260200160002060006101000a81548160ff0219169083151502179055506011805480610c54577f4e487b7100000000000000000000000000000000000000000000000000000000600052603160045260246000fd5b6001900381819060005260206000200160006101000a81549073ffffffffffffffffffffffffffffffffffffffff02191690559055610ca1565b8080610c99906156b3565b9150506109e2565b5050565b6000610d4e610cb26122fb565b84610d4985600e6000610cc36122fb565b73ffffffffffffffffffffffffffffffffffffffff1673ffffffffffffffffffffffffffffffffffffffff16815260200190815260200160002060008973ffffffffffffffffffffffffffffffffffffffff1673ffffffffffffffffffffffffffffffffffffffff1681526020019081526020016000205461294090919063ffffffff16565b612303565b6001905092915050565b610d606122fb565b73ffffffffffffffffffffffffffffffffffffffff16600360009054906101000a900473ffffffffffffffffffffffffffffffffffffffff1673ffffffffffffffffffffffffffffffffffffffff1614610def576040517f08c379a0000000000000000000000000000000000000000000000000000000008152600401610de6906151e5565b60405180910390fd5b610df881612956565b50565b6000610e056122fb565b9050600073ffffffffffffffffffffffffffffffffffffffff168173ffffffffffffffffffffffffffffffffffffffff161415610e77576040517f08c379a0000000000000000000000000000000000000000000000000000000008152600401610e6e90615245565b60405180910390fd5b600760009054906101000a900473ffffffffffffffffffffffffffffffffffffffff1673ffffffffffffffffffffffffffffffffffffffff168173ffffffffffffffffffffffffffffffffffffffff161415610f08576040517f08c379a0000000000000000000000000000000000000000000000000000000008152600401610eff90615045565b60405180910390fd5b6000610f138261145b565b905082811015610f58576040517f08c379a0000000000000000000000000000000000000000000000000000000008152600401610f4f90615105565b60405180910390fd5b6000610f74610f65612baa565b85612bd590919063ffffffff16565b9050610fc881600c60008673ffffffffffffffffffffffffffffffffffffffff1673ffffffffffffffffffffffffffffffffffffffff168152602001908152602001600020546122e590919063ffffffff16565b600c60008573ffffffffffffffffffffffffffffffffffffffff1673ffffffffffffffffffffffffffffffffffffffff16815260200190815260200160002081905550601060008473ffffffffffffffffffffffffffffffffffffffff1673ffffffffffffffffffffffffffffffffffffffff16815260200190815260200160002060009054906101000a900460ff16156110f3576110af84600d60008673ffffffffffffffffffffffffffffffffffffffff1673ffffffffffffffffffffffffffffffffffffffff168152602001908152602001600020546122e590919063ffffffff16565b600d60008573ffffffffffffffffffffffffffffffffffffffff1673ffffffffffffffffffffffffffffffffffffffff168152602001908152602001600020819055505b6110fe838583612beb565b50505050565b60006006600a611114919061545b565b6311de784a6111239190615579565b831115611165576040517f08c379a000000000000000000000000000000000000000000000000000000000815260040161115c906150c5565b60405180910390fd5b81611186576000611177846000612e9e565b505050509050809150506111ad565b60006111a28461119d6111976122fb565b87612f5b565b612e9e565b505050915050809150505b92915050565b6000600360009054906101000a900473ffffffffffffffffffffffffffffffffffffffff16905090565b6111e56122fb565b73ffffffffffffffffffffffffffffffffffffffff1660008054906101000a900473ffffffffffffffffffffffffffffffffffffffff1673ffffffffffffffffffffffffffffffffffffffff1614611272576040517f08c379a000000000000000000000000000000000000000000000000000000000815260040161126990615165565b60405180910390fd5b601060008273ffffffffffffffffffffffffffffffffffffffff1673ffffffffffffffffffffffffffffffffffffffff16815260200190815260200160002060009054906101000a900460ff16156112ff576040517f08c379a00000000000000000000000000000000000000000000000000000000081526004016112f690615025565b60405180910390fd5b61130881612f77565b50565b6000600f60008373ffffffffffffffffffffffffffffffffffffffff1673ffffffffffffffffffffffffffffffffffffffff16815260200190815260200160002060009054906101000a900460ff169050919050565b6000600254905090565b6113736122fb565b73ffffffffffffffffffffffffffffffffffffffff1660008054906101000a900473ffffffffffffffffffffffffffffffffffffffff1673ffffffffffffffffffffffffffffffffffffffff1614611400576040517f08c379a00000000000000000000000000000000000000000000000000000000081526004016113f790615165565b60405180910390fd5b80600f60008473ffffffffffffffffffffffffffffffffffffffff1673ffffffffffffffffffffffffffffffffffffffff16815260200190815260200160002060006101000a81548160ff0219169083151502179055505050565b6000601060008373ffffffffffffffffffffffffffffffffffffffff1673ffffffffffffffffffffffffffffffffffffffff16815260200190815260200160002060009054906101000a900460ff16156114f657600d60008373ffffffffffffffffffffffffffffffffffffffff1673ffffffffffffffffffffffffffffffffffffffff168152602001908152602001600020549050611541565b61153e600c60008473ffffffffffffffffffffffffffffffffffffffff1673ffffffffffffffffffffffffffffffffffffffff16815260200190815260200160002054613109565b90505b919050565b61154e6122fb565b73ffffffffffffffffffffffffffffffffffffffff1660008054906101000a900473ffffffffffffffffffffffffffffffffffffffff1673ffffffffffffffffffffffffffffffffffffffff16146115db576040517f08c379a00000000000000000000000000000000000000000000000000000000081526004016115d290615165565b60405180910390fd5b600073ffffffffffffffffffffffffffffffffffffffff1660008054906101000a900473ffffffffffffffffffffffffffffffffffffffff1673ffffffffffffffffffffffffffffffffffffffff167f8be0079c531659141344cd1fd0a4f28419497f9722a3daafe3b4186f6b6457e060405160405180910390a360008060006101000a81548173ffffffffffffffffffffffffffffffffffffffff021916908373ffffffffffffffffffffffffffffffffffffffff160217905550565b6116a16122fb565b73ffffffffffffffffffffffffffffffffffffffff16600360009054906101000a900473ffffffffffffffffffffffffffffffffffffffff1673ffffffffffffffffffffffffffffffffffffffff1614611730576040517f08c379a0000000000000000000000000000000000000000000000000000000008152600401611727906151e5565b60405180910390fd5b80600360146101000a81548160ff02191690831515021790555050565b6000601060008373ffffffffffffffffffffffffffffffffffffffff1673ffffffffffffffffffffffffffffffffffffffff16815260200190815260200160002060009054906101000a900460ff169050919050565b60008060009054906101000a900473ffffffffffffffffffffffffffffffffffffffff16905090565b60606040518060400160405280600381526020017f5050590000000000000000000000000000000000000000000000000000000000815250905090565b60006118cc6118166122fb565b846118c785604051806060016040528060258152602001615e5860259139600e60006118406122fb565b73ffffffffffffffffffffffffffffffffffffffff1673ffffffffffffffffffffffffffffffffffffffff16815260200190815260200160002060008a73ffffffffffffffffffffffffffffffffffffffff1673ffffffffffffffffffffffffffffffffffffffff168152602001908152602001600020546128eb9092919063ffffffff16565b612303565b6001905092915050565b3373ffffffffffffffffffffffffffffffffffffffff16600160009054906101000a900473ffffffffffffffffffffffffffffffffffffffff1673ffffffffffffffffffffffffffffffffffffffff1614611966576040517f08c379a000000000000000000000000000000000000000000000000000000000815260040161195d90614fc5565b60405180910390fd5b60025442116119aa576040517f08c379a00000000000000000000000000000000000000000000000000000000081526004016119a190614f85565b60405180910390fd5b600160009054906101000a900473ffffffffffffffffffffffffffffffffffffffff1673ffffffffffffffffffffffffffffffffffffffff1660008054906101000a900473ffffffffffffffffffffffffffffffffffffffff1673ffffffffffffffffffffffffffffffffffffffff167f8be0079c531659141344cd1fd0a4f28419497f9722a3daafe3b4186f6b6457e060405160405180910390a3600160009054906101000a900473ffffffffffffffffffffffffffffffffffffffff166000806101000a81548173ffffffffffffffffffffffffffffffffffffffff021916908373ffffffffffffffffffffffffffffffffffffffff160217905550565b6000611abe611ab76122fb565b84846124ce565b6001905092915050565b611ad06122fb565b73ffffffffffffffffffffffffffffffffffffffff16600360009054906101000a900473ffffffffffffffffffffffffffffffffffffffff1673ffffffffffffffffffffffffffffffffffffffff1614611b5f576040517f08c379a0000000000000000000000000000000000000000000000000000000008152600401611b56906151e5565b60405180910390fd5b600073ffffffffffffffffffffffffffffffffffffffff168173ffffffffffffffffffffffffffffffffffffffff161415611bcf576040517f08c379a0000000000000000000000000000000000000000000000000000000008152600401611bc690615145565b60405180910390fd5b600060125411611c14576040517f08c379a0000000000000000000000000000000000000000000000000000000008152600401611c0b906151a5565b60405180910390fd5b6000601254905060006012819055508173ffffffffffffffffffffffffffffffffffffffff166108fc829081150290604051600060405180830381858888f19350505050158015611c69573d6000803e3d6000fd5b505050565b611c766122fb565b73ffffffffffffffffffffffffffffffffffffffff16600360009054906101000a900473ffffffffffffffffffffffffffffffffffffffff1673ffffffffffffffffffffffffffffffffffffffff1614611d05576040517f08c379a0000000000000000000000000000000000000000000000000000000008152600401611cfc906151e5565b60405180910390fd5b80601760156101000a81548160ff0219169083151502179055507f53726dfcaf90650aa7eb35524f4d3220f07413c8d6cb404cc8c18bf5591bc159601760159054906101000a900460ff16604051611d5d9190614f48565b60405180910390a150565b611d706122fb565b73ffffffffffffffffffffffffffffffffffffffff1660008054906101000a900473ffffffffffffffffffffffffffffffffffffffff1673ffffffffffffffffffffffffffffffffffffffff1614611dfd576040517f08c379a0000000000000000000000000000000000000000000000000000000008152600401611df490615165565b60405180910390fd5b60008054906101000a900473ffffffffffffffffffffffffffffffffffffffff16600160006101000a81548173ffffffffffffffffffffffffffffffffffffffff021916908373ffffffffffffffffffffffffffffffffffffffff16021790555060008060006101000a81548173ffffffffffffffffffffffffffffffffffffffff021916908373ffffffffffffffffffffffffffffffffffffffff1602179055508042611eab9190615381565b600281905550600073ffffffffffffffffffffffffffffffffffffffff1660008054906101000a900473ffffffffffffffffffffffffffffffffffffffff1673ffffffffffffffffffffffffffffffffffffffff167f8be0079c531659141344cd1fd0a4f28419497f9722a3daafe3b4186f6b6457e060405160405180910390a350565b6000600e60008473ffffffffffffffffffffffffffffffffffffffff1673ffffffffffffffffffffffffffffffffffffffff16815260200190815260200160002060008373ffffffffffffffffffffffffffffffffffffffff1673ffffffffffffffffffffffffffffffffffffffff16815260200190815260200160002054905092915050565b611fbe6122fb565b73ffffffffffffffffffffffffffffffffffffffff16600360009054906101000a900473ffffffffffffffffffffffffffffffffffffffff1673ffffffffffffffffffffffffffffffffffffffff161461204d576040517f08c379a0000000000000000000000000000000000000000000000000000000008152600401612044906151e5565b60405180910390fd5b8073ffffffffffffffffffffffffffffffffffffffff16600360009054906101000a900473ffffffffffffffffffffffffffffffffffffffff1673ffffffffffffffffffffffffffffffffffffffff167f80f15e9dbc60884fdb59fb8ed4fc48a9a689e028f055e893ed45ca5be67c5c8560405160405180910390a380600360006101000a81548173ffffffffffffffffffffffffffffffffffffffff021916908373ffffffffffffffffffffffffffffffffffffffff16021790555050565b6121156122fb565b73ffffffffffffffffffffffffffffffffffffffff1660008054906101000a900473ffffffffffffffffffffffffffffffffffffffff1673ffffffffffffffffffffffffffffffffffffffff16146121a2576040517f08c379a000000000000000000000000000000000000000000000000000000000815260040161219990615165565b60405180910390fd5b600073ffffffffffffffffffffffffffffffffffffffff168173ffffffffffffffffffffffffffffffffffffffff161415612212576040517f08c379a000000000000000000000000000000000000000000000000000000000815260040161220990615005565b60405180910390fd5b8073ffffffffffffffffffffffffffffffffffffffff1660008054906101000a900473ffffffffffffffffffffffffffffffffffffffff1673ffffffffffffffffffffffffffffffffffffffff167f8be0079c531659141344cd1fd0a4f28419497f9722a3daafe3b4186f6b6457e060405160405180910390a3806000806101000a81548173ffffffffffffffffffffffffffffffffffffffff021916908373ffffffffffffffffffffffffffffffffffffffff16021790555050565b600081836122dd91906153d7565b905092915050565b600081836122f391906155d3565b905092915050565b600033905090565b600073ffffffffffffffffffffffffffffffffffffffff168373ffffffffffffffffffffffffffffffffffffffff161415612373576040517f08c379a000000000000000000000000000000000000000000000000000000000815260040161236a90614fa5565b60405180910390fd5b600073ffffffffffffffffffffffffffffffffffffffff168273ffffffffffffffffffffffffffffffffffffffff1614156123e3576040517f08c379a00000000000000000000000000000000000000000000000000000000081526004016123da90615225565b60405180910390fd5b80600e60008573ffffffffffffffffffffffffffffffffffffffff1673ffffffffffffffffffffffffffffffffffffffff16815260200190815260200160002060008473ffffffffffffffffffffffffffffffffffffffff1673ffffffffffffffffffffffffffffffffffffffff168152602001908152602001600020819055508173ffffffffffffffffffffffffffffffffffffffff168373ffffffffffffffffffffffffffffffffffffffff167f8c5be1e5ebec7d5bd14f71427d1e84f3dd0314c0f7b2291e5b200ac8c7c3b925836040516124c19190615265565b60405180910390a3505050565b600073ffffffffffffffffffffffffffffffffffffffff168373ffffffffffffffffffffffffffffffffffffffff16141561253e576040517f08c379a000000000000000000000000000000000000000000000000000000000815260040161253590615085565b60405180910390fd5b600073ffffffffffffffffffffffffffffffffffffffff168273ffffffffffffffffffffffffffffffffffffffff1614156125ae576040517f08c379a00000000000000000000000000000000000000000000000000000000081526004016125a590615125565b60405180910390fd5b600760009054906101000a900473ffffffffffffffffffffffffffffffffffffffff1673ffffffffffffffffffffffffffffffffffffffff168373ffffffffffffffffffffffffffffffffffffffff16141561263f576040517f08c379a0000000000000000000000000000000000000000000000000000000008152600401612636906150a5565b60405180910390fd5b60008111612682576040517f08c379a000000000000000000000000000000000000000000000000000000000815260040161267990615185565b60405180910390fd5b600060019050600360149054906101000a900460ff16156126a65760009050612822565b60646006600a6126b6919061545b565b6311de784a6126c59190615579565b6126cf91906153d7565b821180156126e357506126e184613177565b155b80156126f557506126f3836131b6565b155b15612735576040517f08c379a000000000000000000000000000000000000000000000000000000000815260040161272c906150e5565b60405180910390fd5b600060326006600a612747919061545b565b6311de784a6127569190615579565b61276091906153d7565b118015612773575061277184613177565b155b80156127855750612783836131b6565b155b801561279757506127958361324d565b155b156128215760006127a78461145b565b905060326006600a6127b9919061545b565b6311de784a6127c89190615579565b6127d291906153d7565b83826127de9190615381565b111561281f576040517f08c379a0000000000000000000000000000000000000000000000000000000008152600401612816906151c5565b60405180910390fd5b505b5b600f60008573ffffffffffffffffffffffffffffffffffffffff1673ffffffffffffffffffffffffffffffffffffffff16815260200190815260200160002060009054906101000a900460ff16806128c35750600f60008473ffffffffffffffffffffffffffffffffffffffff1673ffffffffffffffffffffffffffffffffffffffff16815260200190815260200160002060009054906101000a900460ff165b156128cd57600090505b6128d9848484846132a7565b6128e5848484846132da565b50505050565b6000838311158290612933576040517f08c379a000000000000000000000000000000000000000000000000000000000815260040161292a9190614f63565b60405180910390fd5b5082840390509392505050565b6000818361294e9190615381565b905092915050565b60008190508073ffffffffffffffffffffffffffffffffffffffff1663c45a01556040518163ffffffff1660e01b815260040160206040518083038186803b1580156129a157600080fd5b505afa1580156129b5573d6000803e3d6000fd5b505050506040513d601f19601f820116820180604052508101906129d99190614843565b73ffffffffffffffffffffffffffffffffffffffff1663c9c65396308373ffffffffffffffffffffffffffffffffffffffff1663ad5c46486040518163ffffffff1660e01b815260040160206040518083038186803b158015612a3b57600080fd5b505afa158015612a4f573d6000803e3d6000fd5b505050506040513d601f19601f82011682018060405250810190612a739190614843565b6040518363ffffffff1660e01b8152600401612a90929190614ebe565b602060405180830381600087803b158015612aaa57600080fd5b505af1158015612abe573d6000803e3d6000fd5b505050506040513d601f19601f82011682018060405250810190612ae29190614843565b601760006101000a81548173ffffffffffffffffffffffffffffffffffffffff021916908373ffffffffffffffffffffffffffffffffffffffff16021790555080601660006101000a81548173ffffffffffffffffffffffffffffffffffffffff021916908373ffffffffffffffffffffffffffffffffffffffff1602179055508173ffffffffffffffffffffffffffffffffffffffff167fc6b438e6a8a59579ce6a4406cbd203b740e0d47b458aae6596339bcd40c40d1560405160405180910390a25050565b6000806000612bb7613684565b91509150612bce81836122cf90919063ffffffff16565b9250505090565b60008183612be39190615579565b905092915050565b612c5f81600c6000600760009054906101000a900473ffffffffffffffffffffffffffffffffffffffff1673ffffffffffffffffffffffffffffffffffffffff1673ffffffffffffffffffffffffffffffffffffffff1681526020019081526020016000205461294090919063ffffffff16565b600c6000600760009054906101000a900473ffffffffffffffffffffffffffffffffffffffff1673ffffffffffffffffffffffffffffffffffffffff1673ffffffffffffffffffffffffffffffffffffffff1681526020019081526020016000208190555060106000600760009054906101000a900473ffffffffffffffffffffffffffffffffffffffff1673ffffffffffffffffffffffffffffffffffffffff1673ffffffffffffffffffffffffffffffffffffffff16815260200190815260200160002060009054906101000a900460ff1615612e1257612dac82600d6000600760009054906101000a900473ffffffffffffffffffffffffffffffffffffffff1673ffffffffffffffffffffffffffffffffffffffff1673ffffffffffffffffffffffffffffffffffffffff1681526020019081526020016000205461294090919063ffffffff16565b600d6000600760009054906101000a900473ffffffffffffffffffffffffffffffffffffffff1673ffffffffffffffffffffffffffffffffffffffff1673ffffffffffffffffffffffffffffffffffffffff168152602001908152602001600020819055505b600760009054906101000a900473ffffffffffffffffffffffffffffffffffffffff1673ffffffffffffffffffffffffffffffffffffffff168373ffffffffffffffffffffffffffffffffffffffff167fddf252ad1be2c89b69c2b068fc378daa952ba7f163c4a11628f55a4df523b3ef84604051612e919190615265565b60405180910390a3505050565b600080600080600080612ed26103e861ffff16612ec4898b612bd590919063ffffffff16565b6122cf90919063ffffffff16565b90506000612ee9828a6122e590919063ffffffff16565b90506000612ef5612baa565b90506000612f0c828c612bd590919063ffffffff16565b90506000612f238386612bd590919063ffffffff16565b90506000612f3a82846122e590919063ffffffff16565b905082818e87879a509a509a509a509a505050505050509295509295909350565b6000612f6f612f698461145b565b83613a42565b905092915050565b6000600c60008373ffffffffffffffffffffffffffffffffffffffff1673ffffffffffffffffffffffffffffffffffffffff16815260200190815260200160002054111561304b57613007600c60008373ffffffffffffffffffffffffffffffffffffffff1673ffffffffffffffffffffffffffffffffffffffff16815260200190815260200160002054613109565b600d60008373ffffffffffffffffffffffffffffffffffffffff1673ffffffffffffffffffffffffffffffffffffffff168152602001908152602001600020819055505b6001601060008373ffffffffffffffffffffffffffffffffffffffff1673ffffffffffffffffffffffffffffffffffffffff16815260200190815260200160002060006101000a81548160ff0219169083151502179055506011819080600181540180825580915050600190039060005260206000200160009091909190916101000a81548173ffffffffffffffffffffffffffffffffffffffff021916908373ffffffffffffffffffffffffffffffffffffffff16021790555050565b6000600454821115613150576040517f08c379a000000000000000000000000000000000000000000000000000000000815260040161314790614fe5565b60405180910390fd5b600061315a612baa565b905061316f81846122cf90919063ffffffff16565b915050919050565b60006131816117a3565b73ffffffffffffffffffffffffffffffffffffffff168273ffffffffffffffffffffffffffffffffffffffff16149050919050565b60006131c06117a3565b73ffffffffffffffffffffffffffffffffffffffff168273ffffffffffffffffffffffffffffffffffffffff1614806132465750600760009054906101000a900473ffffffffffffffffffffffffffffffffffffffff1673ffffffffffffffffffffffffffffffffffffffff168273ffffffffffffffffffffffffffffffffffffffff16145b9050919050565b6000601760009054906101000a900473ffffffffffffffffffffffffffffffffffffffff1673ffffffffffffffffffffffffffffffffffffffff168273ffffffffffffffffffffffffffffffffffffffff16149050919050565b600360149054906101000a900460ff166132d45760006132c63061145b565b90506132d28186613a4f565b505b50505050565b60006132e68584612f5b565b9050816132f257600090505b60008060008060006133048887612e9e565b9450945094509450945061336085600c60008d73ffffffffffffffffffffffffffffffffffffffff1673ffffffffffffffffffffffffffffffffffffffff168152602001908152602001600020546122e590919063ffffffff16565b600c60008c73ffffffffffffffffffffffffffffffffffffffff1673ffffffffffffffffffffffffffffffffffffffff168152602001908152602001600020819055506133f584600c60008c73ffffffffffffffffffffffffffffffffffffffff1673ffffffffffffffffffffffffffffffffffffffff1681526020019081526020016000205461294090919063ffffffff16565b600c60008b73ffffffffffffffffffffffffffffffffffffffff1673ffffffffffffffffffffffffffffffffffffffff16815260200190815260200160002081905550601060008b73ffffffffffffffffffffffffffffffffffffffff1673ffffffffffffffffffffffffffffffffffffffff16815260200190815260200160002060009054906101000a900460ff1615613520576134dc83600d60008d73ffffffffffffffffffffffffffffffffffffffff1673ffffffffffffffffffffffffffffffffffffffff168152602001908152602001600020546122e590919063ffffffff16565b600d60008c73ffffffffffffffffffffffffffffffffffffffff1673ffffffffffffffffffffffffffffffffffffffff168152602001908152602001600020819055505b601060008a73ffffffffffffffffffffffffffffffffffffffff1673ffffffffffffffffffffffffffffffffffffffff16815260200190815260200160002060009054906101000a900460ff1615613608576135c482600d60008c73ffffffffffffffffffffffffffffffffffffffff1673ffffffffffffffffffffffffffffffffffffffff1681526020019081526020016000205461294090919063ffffffff16565b600d60008b73ffffffffffffffffffffffffffffffffffffffff1673ffffffffffffffffffffffffffffffffffffffff168152602001908152602001600020819055505b613613888288613b08565b8873ffffffffffffffffffffffffffffffffffffffff168a73ffffffffffffffffffffffffffffffffffffffff167fddf252ad1be2c89b69c2b068fc378daa952ba7f163c4a11628f55a4df523b3ef846040516136709190615265565b60405180910390a350505050505050505050565b6000806000600454905060006006600a61369e919061545b565b6311de784a6136ad9190615579565b905060005b6011805490508110156139c65782600c6000601184815481106136fe577f4e487b7100000000000000000000000000000000000000000000000000000000600052603260045260246000fd5b9060005260206000200160009054906101000a900473ffffffffffffffffffffffffffffffffffffffff1673ffffffffffffffffffffffffffffffffffffffff1673ffffffffffffffffffffffffffffffffffffffff168152602001908152602001600020541180613812575081600d6000601184815481106137aa577f4e487b7100000000000000000000000000000000000000000000000000000000600052603260045260246000fd5b9060005260206000200160009054906101000a900473ffffffffffffffffffffffffffffffffffffffff1673ffffffffffffffffffffffffffffffffffffffff1673ffffffffffffffffffffffffffffffffffffffff16815260200190815260200160002054115b15613843576004546006600a613828919061545b565b6311de784a6138379190615579565b94509450505050613a3e565b6138f9600c600060118481548110613884577f4e487b7100000000000000000000000000000000000000000000000000000000600052603260045260246000fd5b9060005260206000200160009054906101000a900473ffffffffffffffffffffffffffffffffffffffff1673ffffffffffffffffffffffffffffffffffffffff1673ffffffffffffffffffffffffffffffffffffffff16815260200190815260200160002054846122e590919063ffffffff16565b92506139b1600d60006011848154811061393c577f4e487b7100000000000000000000000000000000000000000000000000000000600052603260045260246000fd5b9060005260206000200160009054906101000a900473ffffffffffffffffffffffffffffffffffffffff1673ffffffffffffffffffffffffffffffffffffffff1673ffffffffffffffffffffffffffffffffffffffff16815260200190815260200160002054836122e590919063ffffffff16565b915080806139be906156b3565b9150506136b2565b506000811480613a055750613a026006600a6139e2919061545b565b6311de784a6139f19190615579565b6004546122cf90919063ffffffff16565b82105b15613a35576004546006600a613a1b919061545b565b6311de784a613a2a9190615579565b935093505050613a3e565b81819350935050505b9091565b6000600b54905092915050565b6018548210613a5e5760185491505b60006019548310159050808015613a815750601760159054906101000a900460ff165b8015613a9a5750601760149054906101000a900460ff16155b8015613af45750601760009054906101000a900473ffffffffffffffffffffffffffffffffffffffff1673ffffffffffffffffffffffffffffffffffffffff168273ffffffffffffffffffffffffffffffffffffffff1614155b15613b0357613b0283613b3a565b5b505050565b600081118015613b255750600360149054906101000a900460ff16155b15613b3557613b348383613c10565b5b505050565b6001601760146101000a81548160ff0219169083151502179055506000613b6b6002836122cf90919063ffffffff16565b90506000613b8282846122e590919063ffffffff16565b90506000479050613b9283613eb2565b6000613ba782476122e590919063ffffffff16565b9050613bb38382614176565b7f17bbfb9a6069321b6ded73bd96327c9e6b7212a5cd51ff219cd61370acafb561848285604051613be6939291906152da565b60405180910390a1505050506000601760146101000a81548160ff02191690831515021790555050565b600360149054906101000a900460ff1615613c2a57613eae565b6000613c346142b7565b905060005b81811015613eab576000806000613c4f846142c4565b509250925092506000821415613c6757505050613e98565b60036005811115613ca1577f4e487b7100000000000000000000000000000000000000000000000000000000600052602160045260246000fd5b836005811115613cda577f4e487b7100000000000000000000000000000000000000000000000000000000600052602160045260246000fd5b1415613cf157613cec878784876143f7565b613e94565b60016005811115613d2b577f4e487b7100000000000000000000000000000000000000000000000000000000600052602160045260246000fd5b836005811115613d64577f4e487b7100000000000000000000000000000000000000000000000000000000600052602160045260246000fd5b1415613d7b57613d768787848761446a565b613e93565b60006005811115613db5577f4e487b7100000000000000000000000000000000000000000000000000000000600052602160045260246000fd5b836005811115613dee577f4e487b7100000000000000000000000000000000000000000000000000000000600052602160045260246000fd5b1415613df957613e92565b600580811115613e32577f4e487b7100000000000000000000000000000000000000000000000000000000600052602160045260246000fd5b836005811115613e6b577f4e487b7100000000000000000000000000000000000000000000000000000000600052602160045260246000fd5b1415613e8357613e7e87878484886144cd565b613e91565b613e9087878484886144e1565b5b5b5b5b5050505b8080613ea3906156b3565b915050613c39565b50505b5050565b6000600267ffffffffffffffff811115613ef5577f4e487b7100000000000000000000000000000000000000000000000000000000600052604160045260246000fd5b604051908082528060200260200182016040528015613f235781602001602082028036833780820191505090505b5090503081600081518110613f61577f4e487b7100000000000000000000000000000000000000000000000000000000600052603260045260246000fd5b602002602001019073ffffffffffffffffffffffffffffffffffffffff16908173ffffffffffffffffffffffffffffffffffffffff1681525050601660009054906101000a900473ffffffffffffffffffffffffffffffffffffffff1673ffffffffffffffffffffffffffffffffffffffff1663ad5c46486040518163ffffffff1660e01b815260040160206040518083038186803b15801561400357600080fd5b505afa158015614017573d6000803e3d6000fd5b505050506040513d601f19601f8201168201806040525081019061403b9190614843565b81600181518110614075577f4e487b7100000000000000000000000000000000000000000000000000000000600052603260045260246000fd5b602002602001019073ffffffffffffffffffffffffffffffffffffffff16908173ffffffffffffffffffffffffffffffffffffffff16815250506140dc30601660009054906101000a900473ffffffffffffffffffffffffffffffffffffffff16846146b7565b601660009054906101000a900473ffffffffffffffffffffffffffffffffffffffff1673ffffffffffffffffffffffffffffffffffffffff1663791ac9478360008430426040518663ffffffff1660e01b8152600401614140959493929190615280565b600060405180830381600087803b15801561415a57600080fd5b505af115801561416e573d6000803e3d6000fd5b505050505050565b6141a330601660009054906101000a900473ffffffffffffffffffffffffffffffffffffffff16846146b7565b6000806000601660009054906101000a900473ffffffffffffffffffffffffffffffffffffffff1673ffffffffffffffffffffffffffffffffffffffff1663f305d7198530886000806141f46117a3565b426040518863ffffffff1660e01b815260040161421696959493929190614ee7565b6060604051808303818588803b15801561422f57600080fd5b505af1158015614243573d6000803e3d6000fd5b50505050506040513d601f19601f820116820180604052508101906142689190614a26565b925092509250476012819055507fd7f28048575eead8851d024ead087913957dfb4fd1a02b4d1573f5352a5a2be38383836040516142a8939291906152da565b60405180910390a15050505050565b6000600a80549050905090565b60008060008060006142d5866146c7565b6040518060800160405290816000820160009054906101000a900460ff16600581111561432b577f4e487b7100000000000000000000000000000000000000000000000000000000600052602160045260246000fd5b6005811115614363577f4e487b7100000000000000000000000000000000000000000000000000000000600052602160045260246000fd5b8152602001600182015481526020016002820160009054906101000a900473ffffffffffffffffffffffffffffffffffffffff1673ffffffffffffffffffffffffffffffffffffffff1673ffffffffffffffffffffffffffffffffffffffff168152602001600382015481525050905080600001518160200151826040015183606001519450945094509450509193509193565b60006144246103e861ffff166144168588612bd590919063ffffffff16565b6122cf90919063ffffffff16565b9050600061443b8583612bd590919063ffffffff16565b9050614452816004546122e590919063ffffffff16565b600481905550614462838361476b565b505050505050565b60006144976103e861ffff166144898588612bd590919063ffffffff16565b6122cf90919063ffffffff16565b905060006144ae8583612bd590919063ffffffff16565b90506144bb308383612beb565b6144c5838361476b565b505050505050565b6144da85858585856144e1565b5050505050565b600061450e6103e861ffff166145008689612bd590919063ffffffff16565b6122cf90919063ffffffff16565b905060006145258683612bd590919063ffffffff16565b905061457981600c60008773ffffffffffffffffffffffffffffffffffffffff1673ffffffffffffffffffffffffffffffffffffffff1681526020019081526020016000205461294090919063ffffffff16565b600c60008673ffffffffffffffffffffffffffffffffffffffff1673ffffffffffffffffffffffffffffffffffffffff16815260200190815260200160002081905550601060008573ffffffffffffffffffffffffffffffffffffffff1673ffffffffffffffffffffffffffffffffffffffff16815260200190815260200160002060009054906101000a900460ff16156146a45761466082600d60008773ffffffffffffffffffffffffffffffffffffffff1673ffffffffffffffffffffffffffffffffffffffff1681526020019081526020016000205461294090919063ffffffff16565b600d60008673ffffffffffffffffffffffffffffffffffffffff1673ffffffffffffffffffffffffffffffffffffffff168152602001908152602001600020819055505b6146ae838361476b565b50505050505050565b6146c2838383612303565b505050565b60008082101580156146dd5750600a8054905082105b61471c576040517f08c379a000000000000000000000000000000000000000000000000000000000815260040161471390615205565b60405180910390fd5b600a8281548110614756577f4e487b7100000000000000000000000000000000000000000000000000000000600052603260045260246000fd5b90600052602060002090600402019050919050565b6000614776836146c7565b905061478f82826003015461294090919063ffffffff16565b8160030181905550505050565b6000813590506147ab81615dd3565b92915050565b6000815190506147c081615dd3565b92915050565b6000813590506147d581615dea565b92915050565b6000813590506147ea81615e01565b92915050565b6000813590506147ff81615e18565b92915050565b60008151905061481481615e18565b92915050565b60006020828403121561482c57600080fd5b600061483a8482850161479c565b91505092915050565b60006020828403121561485557600080fd5b6000614863848285016147b1565b91505092915050565b60006020828403121561487e57600080fd5b600061488c848285016147c6565b91505092915050565b600080604083850312156148a857600080fd5b60006148b68582860161479c565b92505060206148c78582860161479c565b9150509250929050565b6000806000606084860312156148e657600080fd5b60006148f48682870161479c565b93505060206149058682870161479c565b9250506040614916868287016147f0565b9150509250925092565b6000806040838503121561493357600080fd5b60006149418582860161479c565b9250506020614952858286016147db565b9150509250929050565b6000806040838503121561496f57600080fd5b600061497d8582860161479c565b925050602061498e858286016147f0565b9150509250929050565b6000602082840312156149aa57600080fd5b60006149b8848285016147db565b91505092915050565b6000602082840312156149d357600080fd5b60006149e1848285016147f0565b91505092915050565b600080604083850312156149fd57600080fd5b6000614a0b858286016147f0565b9250506020614a1c858286016147db565b9150509250929050565b600080600060608486031215614a3b57600080fd5b6000614a4986828701614805565b9350506020614a5a86828701614805565b9250506040614a6b86828701614805565b9150509250925092565b6000614a818383614a8d565b60208301905092915050565b614a9681615607565b82525050565b614aa581615607565b82525050565b6000614ab68261533c565b614ac0818561535f565b9350614acb8361532c565b8060005b83811015614afc578151614ae38882614a75565b9750614aee83615352565b925050600181019050614acf565b5085935050505092915050565b614b128161562b565b82525050565b614b218161566e565b82525050565b6000614b3282615347565b614b3c8185615370565b9350614b4c818560208601615680565b614b558161575a565b840191505092915050565b6000614b6d601c83615370565b9150614b7882615778565b602082019050919050565b6000614b90602b83615370565b9150614b9b826157a1565b604082019050919050565b6000614bb3602c83615370565b9150614bbe826157f0565b604082019050919050565b6000614bd6602a83615370565b9150614be18261583f565b604082019050919050565b6000614bf9602683615370565b9150614c048261588e565b604082019050919050565b6000614c1c601783615370565b9150614c27826158dd565b602082019050919050565b6000614c3f602883615370565b9150614c4a82615906565b604082019050919050565b6000614c62601783615370565b9150614c6d82615955565b602082019050919050565b6000614c85602c83615370565b9150614c908261597e565b604082019050919050565b6000614ca8602c83615370565b9150614cb3826159cd565b604082019050919050565b6000614ccb601f83615370565b9150614cd682615a1c565b602082019050919050565b6000614cee602883615370565b9150614cf982615a45565b604082019050919050565b6000614d11602983615370565b9150614d1c82615a94565b604082019050919050565b6000614d34602a83615370565b9150614d3f82615ae3565b604082019050919050565b6000614d57603383615370565b9150614d6282615b32565b604082019050919050565b6000614d7a602083615370565b9150614d8582615b81565b602082019050919050565b6000614d9d602983615370565b9150614da882615baa565b604082019050919050565b6000614dc0602683615370565b9150614dcb82615bf9565b604082019050919050565b6000614de3602d83615370565b9150614dee82615c48565b604082019050919050565b6000614e06602583615370565b9150614e1182615c97565b604082019050919050565b6000614e29603383615370565b9150614e3482615ce6565b604082019050919050565b6000614e4c602983615370565b9150614e5782615d35565b604082019050919050565b6000614e6f602883615370565b9150614e7a82615d84565b604082019050919050565b614e8e81615657565b82525050565b614e9d81615661565b82525050565b6000602082019050614eb86000830184614a9c565b92915050565b6000604082019050614ed36000830185614a9c565b614ee06020830184614a9c565b9392505050565b600060c082019050614efc6000830189614a9c565b614f096020830188614e85565b614f166040830187614b18565b614f236060830186614b18565b614f306080830185614a9c565b614f3d60a0830184614e85565b979650505050505050565b6000602082019050614f5d6000830184614b09565b92915050565b60006020820190508181036000830152614f7d8184614b27565b905092915050565b60006020820190508181036000830152614f9e81614b60565b9050919050565b60006020820190508181036000830152614fbe81614b83565b9050919050565b60006020820190508181036000830152614fde81614ba6565b9050919050565b60006020820190508181036000830152614ffe81614bc9565b9050919050565b6000602082019050818103600083015261501e81614bec565b9050919050565b6000602082019050818103600083015261503e81614c0f565b9050919050565b6000602082019050818103600083015261505e81614c32565b9050919050565b6000602082019050818103600083015261507e81614c55565b9050919050565b6000602082019050818103600083015261509e81614c78565b9050919050565b600060208201905081810360008301526150be81614c9b565b9050919050565b600060208201905081810360008301526150de81614cbe565b9050919050565b600060208201905081810360008301526150fe81614ce1565b9050919050565b6000602082019050818103600083015261511e81614d04565b9050919050565b6000602082019050818103600083015261513e81614d27565b9050919050565b6000602082019050818103600083015261515e81614d4a565b9050919050565b6000602082019050818103600083015261517e81614d6d565b9050919050565b6000602082019050818103600083015261519e81614d90565b9050919050565b600060208201905081810360008301526151be81614db3565b9050919050565b600060208201905081810360008301526151de81614dd6565b9050919050565b600060208201905081810360008301526151fe81614df9565b9050919050565b6000602082019050818103600083015261521e81614e1c565b9050919050565b6000602082019050818103600083015261523e81614e3f565b9050919050565b6000602082019050818103600083015261525e81614e62565b9050919050565b600060208201905061527a6000830184614e85565b92915050565b600060a0820190506152956000830188614e85565b6152a26020830187614b18565b81810360408301526152b48186614aab565b90506152c36060830185614a9c565b6152d06080830184614e85565b9695505050505050565b60006060820190506152ef6000830186614e85565b6152fc6020830185614e85565b6153096040830184614e85565b949350505050565b60006020820190506153266000830184614e94565b92915050565b6000819050602082019050919050565b600081519050919050565b600081519050919050565b6000602082019050919050565b600082825260208201905092915050565b600082825260208201905092915050565b600061538c82615657565b915061539783615657565b9250827fffffffffffffffffffffffffffffffffffffffffffffffffffffffffffffffff038211156153cc576153cb6156fc565b5b828201905092915050565b60006153e282615657565b91506153ed83615657565b9250826153fd576153fc61572b565b5b828204905092915050565b6000808291508390505b60018511156154525780860481111561542e5761542d6156fc565b5b600185161561543d5780820291505b808102905061544b8561576b565b9450615412565b94509492505050565b600061546682615657565b915061547183615661565b925061549e7fffffffffffffffffffffffffffffffffffffffffffffffffffffffffffffffff84846154a6565b905092915050565b6000826154b65760019050615572565b816154c45760009050615572565b81600181146154da57600281146154e457615513565b6001915050615572565b60ff8411156154f6576154f56156fc565b5b8360020a91508482111561550d5761550c6156fc565b5b50615572565b5060208310610133831016604e8410600b84101617156155485782820a905083811115615543576155426156fc565b5b615572565b6155558484846001615408565b9250905081840481111561556c5761556b6156fc565b5b81810290505b9392505050565b600061558482615657565b915061558f83615657565b9250817fffffffffffffffffffffffffffffffffffffffffffffffffffffffffffffffff04831182151516156155c8576155c76156fc565b5b828202905092915050565b60006155de82615657565b91506155e983615657565b9250828210156155fc576155fb6156fc565b5b828203905092915050565b600061561282615637565b9050919050565b600061562482615637565b9050919050565b60008115159050919050565b600073ffffffffffffffffffffffffffffffffffffffff82169050919050565b6000819050919050565b600060ff82169050919050565b600061567982615657565b9050919050565b60005b8381101561569e578082015181840152602081019050615683565b838111156156ad576000848401525b50505050565b60006156be82615657565b91507fffffffffffffffffffffffffffffffffffffffffffffffffffffffffffffffff8214156156f1576156f06156fc565b5b600182019050919050565b7f4e487b7100000000000000000000000000000000000000000000000000000000600052601160045260246000fd5b7f4e487b7100000000000000000000000000000000000000000000000000000000600052601260045260246000fd5b6000601f19601f8301169050919050565b60008160011c9050919050565b7f54686520636f6e7472616374206973207374696c6c206c6f636b656400000000600082015250565b7f42617365526669546f6b656e3a20617070726f76652066726f6d20746865207a60008201527f65726f2061646472657373000000000000000000000000000000000000000000602082015250565b7f4f6e6c79207468652070726576696f7573206f776e65722063616e20756e6c6f60008201527f636b206f6e776572736869700000000000000000000000000000000000000000602082015250565b7f416d6f756e74206d757374206265206c657373207468616e20746f74616c207260008201527f65666c656374696f6e7300000000000000000000000000000000000000000000602082015250565b7f4f776e61626c653a206e6577206f776e657220697320746865207a65726f206160008201527f6464726573730000000000000000000000000000000000000000000000000000602082015250565b7f4163636f756e74206973206e6f7420696e636c75646564000000000000000000600082015250565b7f42617365526669546f6b656e3a206275726e2066726f6d20746865206275726e60008201527f2061646472657373000000000000000000000000000000000000000000000000602082015250565b7f4163636f756e74206973206e6f74206578636c75646564000000000000000000600082015250565b7f42617365526669546f6b656e3a207472616e736665722066726f6d207468652060008201527f7a65726f20616464726573730000000000000000000000000000000000000000602082015250565b7f42617365526669546f6b656e3a207472616e736665722066726f6d207468652060008201527f6275726e20616464726573730000000000000000000000000000000000000000602082015250565b7f416d6f756e74206d757374206265206c657373207468616e20737570706c7900600082015250565b7f5472616e7366657220616d6f756e74206578636565647320746865206d61785460008201527f78416d6f756e742e000000000000000000000000000000000000000000000000602082015250565b7f42617365526669546f6b656e3a206275726e20616d6f756e742065786365656460008201527f732062616c616e63650000000000000000000000000000000000000000000000602082015250565b7f42617365526669546f6b656e3a207472616e7366657220746f20746865207a6560008201527f726f206164647265737300000000000000000000000000000000000000000000602082015250565b7f43616e6e6f7420776974686472617720746865204554482062616c616e63652060008201527f746f20746865207a65726f206164647265737300000000000000000000000000602082015250565b7f4f776e61626c653a2063616c6c6572206973206e6f7420746865206f776e6572600082015250565b7f5472616e7366657220616d6f756e74206d75737420626520677265617465722060008201527f7468616e207a65726f0000000000000000000000000000000000000000000000602082015250565b7f546865204554482062616c616e6365206d75737420626520677265617465722060008201527f7468616e20300000000000000000000000000000000000000000000000000000602082015250565b7f4e65772062616c616e636520776f756c642065786365656420746865206d617860008201527f57616c6c657442616c616e636500000000000000000000000000000000000000602082015250565b7f4d616e61676561626c653a2063616c6c6572206973206e6f7420746865206d6160008201527f6e61676572000000000000000000000000000000000000000000000000000000602082015250565b7f4665657353657474696e67732e5f6765744665655374727563743a204665652060008201527f696e646578206f7574206f6620626f756e647300000000000000000000000000602082015250565b7f42617365526669546f6b656e3a20617070726f766520746f20746865207a657260008201527f6f20616464726573730000000000000000000000000000000000000000000000602082015250565b7f42617365526669546f6b656e3a206275726e2066726f6d20746865207a65726f60008201527f2061646472657373000000000000000000000000000000000000000000000000602082015250565b615ddc81615607565b8114615de757600080fd5b50565b615df381615619565b8114615dfe57600080fd5b50565b615e0a8161562b565b8114615e1557600080fd5b50565b615e2181615657565b8114615e2c57600080fd5b5056fe45524332303a207472616e7366657220616d6f756e74206578636565647320616c6c6f77616e636545524332303a2064656372656173656420616c6c6f77616e63652062656c6f77207a65726fa2646970667358221220814a792c2e6d1c7dad1a5d6dda762dadd242bf5c197ea2ffcd55371f4640858a64736f6c63430008040033",
  "immutableReferences": {},
  "source": "/**\n *\n * MyToken v1.0\n *\n *\n * SPDX-License-Identifier: MIT\n */\npragma solidity ^0.8.4;\n\n/**\n * Tokenomics:\n *\n * Liquidity        2%\n * Redistribution   1%\n * Burn             0.5%\n * Charity          0.5%\n * Venture Capital  1.8%\n * Tip              0.2%\n */\n\nimport \"./MyTokenImports.sol\";\n\n/**\n * @dev If I did a good job you should not need to change anything apart from the values in the `Tokenomics`,\n * the actual name of the contract `SafeTokenV1Beta` at the very bottom **and** the `environment` into which\n * you are deploying the contract `SafeToken(Env.Testnet)` or `SafeToken(Env.MainnetV2)` etc.\n *\n * If you wish to disable a particular tax/fee just set it to zero (or comment it out/remove it).\n *\n * You can add (in theory) as many custom taxes/fees with dedicated wallet addresses if you want.\n * Nevertheless, I do not recommend using more than a few as the contract has not been tested\n * for more than the original number of taxes/fees, which is 6 (liquidity, redistribution, burn,\n * marketing, charity & tip to the dev). Furthermore, exchanges may impose a limit on the total\n * transaction fee (so that, for example, you cannot claim 100%). Usually this is done by limiting the\n * max value of slippage, for example, PancakeSwap max slippage is 49.9% and the fees total of more than\n * 35% will most likely fail there.\n *\n * NOTE: You shouldn't really remove the Rfi fee. If you do not wish to use RFI for your token,\n * you shouldn't be using this contract at all (you're just wasting gas if you do).\n *\n * NOTE: ignore the note below (anti-whale mech is not implemented yet)\n * If you wish to modify the anti-whale mech (progressive taxation) it will require a bit of coding.\n * I tried to make the integration as simple as possible via the `Antiwhale` contract, so the devs\n * know exactly where to look and what/how to make the necessary changes. There are many possibilites,\n * such as modifying the fees based on the tx amount (as % of TOTAL_SUPPLY), or sender's wallet balance\n * (as % of TOTAL_SUPPLY), including (but not limited to):\n * - progressive taxation by tax brackets (e.g <1%, 1-2%, 2-5%, 5-10%)\n * - progressive taxation by the % over a threshold (e.g. 1%)\n * - extra fee (e.g. double) over a threshold\n */\nabstract contract Tokenomics {\n    using SafeMath for uint256;\n\n    // --------------------- Token Settings ------------------- //\n\n    string internal constant NAME = \"MyToken\";\n    string internal constant SYMBOL = \"PPY\";\n\n    uint16 internal constant FEES_DIVISOR = 10**3;\n    uint8 internal constant DECIMALS = 6;\n    uint256 internal constant ZEROES = 10**DECIMALS;\n\n    uint256 private constant MAX = ~uint256(0);\n    uint256 internal constant TOTAL_SUPPLY = 299792458 * ZEROES;\n    uint256 internal _reflectedSupply = (MAX - (MAX % TOTAL_SUPPLY));\n\n    /**\n     * @dev Set the maximum transaction amount allowed in a transfer.\n     *\n     * The default value is 1% of the total supply.\n     *\n     * NOTE: set the value to `TOTAL_SUPPLY` to have an unlimited max, i.e.\n     * `maxTransactionAmount = TOTAL_SUPPLY;`\n     */\n    uint256 internal constant maxTransactionAmount = TOTAL_SUPPLY / 100; // 1% of the total supply\n\n    /**\n     * @dev Set the maximum allowed balance in a wallet.\n     *\n     * The default value is 2% of the total supply.\n     *\n     * NOTE: set the value to 0 to have an unlimited max.\n     *\n     * IMPORTANT: This value MUST be greater than `numberOfTokensToSwapToLiquidity` set below,\n     * otherwise the liquidity swap will never be executed\n     */\n    uint256 internal constant maxWalletBalance = TOTAL_SUPPLY / 50; // 2% of the total supply\n\n    /**\n     * @dev Set the number of tokens to swap and add to liquidity.\n     *\n     * Whenever the contract's balance reaches this number of tokens, swap & liquify will be\n     * executed in the very next transfer (via the `_beforeTokenTransfer`)\n     *\n     * If the `FeeType.Liquidity` is enabled in `FeesSettings`, the given % of each transaction will be first\n     * sent to the contract address. Once the contract's balance reaches `numberOfTokensToSwapToLiquidity` the\n     * `swapAndLiquify` of `Liquifier` will be executed. Half of the tokens will be swapped for ETH\n     * (or BNB on BSC) and together with the other half converted into a Token-ETH/Token-BNB LP Token.\n     *\n     * See: `Liquifier`\n     */\n    uint256 internal constant numberOfTokensToSwapToLiquidity =\n        TOTAL_SUPPLY / 1000; // 0.1% of the total supply\n\n    // --------------------- Fees Settings ------------------- //\n\n    /**\n     * @dev To add/edit/remove fees scroll down to the `addFees` function below\n     */\n\n    address internal charityAddress = 0xf57c4A1383446998630d6aa0d15ca74f88b035a5;\n    address internal ventureCapitalAddress = 0x5AB0Fa648d0c96b1B8ec2759c0ae996963E945D5;\n\n    /**\n     * @dev You can change the value of the burn address to pretty much anything\n     * that's (clearly) a non-random address, i.e. for which the probability of\n     * someone having the private key is (virtually) 0. For example, 0x00.....1,\n     * 0x111...111, 0x12345.....12345, etc.\n     *\n     * NOTE: This does NOT need to be the zero address, adress(0) = 0x000...000;\n     *\n     * Trasfering tokens to the burn address is good for optics/marketing. Nevertheless\n     * if the burn address is excluded from rewards (unlike in Safemoon), sending tokens\n     * to the burn address actually improves redistribution to holders (as they will\n     * have a larger % of tokens in non-excluded accounts)\n     *\n     * p.s. the address below is the speed of light in vacuum in m/s (expressed in decimals),\n     * the hex value is 0x0000000000000000000000000000000011dE784A; :)\n     *\n     * Here are the values of some other fundamental constants to use:\n     * 0x0000000000000000000000000000000602214076 (Avogardo constant)\n     * 0x0000000000000000000000000000000001380649 (Boltzmann constant)\n     * 0x2718281828459045235360287471352662497757 (e)\n     * 0x0000000000000000000000000000001602176634 (elementary charge)\n     * 0x0000000000000000000000000200231930436256 (electron g-factor)\n     * 0x0000000000000000000000000000091093837015 (electron mass)\n     * 0x0000000000000000000000000000137035999084 (fine structure constant)\n     * 0x0577215664901532860606512090082402431042 (Euler-Mascheroni constant)\n     * 0x1618033988749894848204586834365638117720 (golden ratio)\n     * 0x0000000000000000000000000000009192631770 (hyperfine transition fq)\n     * 0x0000000000000000000000000000010011659208 (muom g-2)\n     * 0x3141592653589793238462643383279502884197 (pi)\n     * 0x0000000000000000000000000000000662607015 (Planck's constant)\n     * 0x0000000000000000000000000000001054571817 (reduced Planck's constant)\n     * 0x1414213562373095048801688724209698078569 (sqrt(2))\n     */\n    address internal burnAddress = 0x0000000000000000000000000000000602214076;\n\n    /**\n     * 0.1% will go into each of my kids wallets for when they grow up :)\n     */\n    address internal tip1 = 0x3277dFC7f136747B42eE01b97Af9C610Aa6631E1;\n    address internal tip2 = 0xE71F74607ed7d3f070d94A6Ee820086472E84664;\n\n    enum FeeType {\n        Antiwhale,\n        Burn,\n        Liquidity,\n        Rfi,\n        External,\n        ExternalToETH\n    }\n    struct Fee {\n        FeeType name;\n        uint256 value;\n        address recipient;\n        uint256 total;\n    }\n\n    Fee[] internal fees;\n    uint256 internal sumOfFees;\n\n    constructor() {\n        _addFees();\n    }\n\n    function _addFee(\n        FeeType name,\n        uint256 value,\n        address recipient\n    ) private {\n        fees.push(Fee(name, value, recipient, 0));\n        sumOfFees += value;\n    }\n\n    function _addFees() private {\n        /**\n         * The RFI recipient is ignored but we need to give a valid address value\n         *\n         * CAUTION: If you don't want to use RFI this implementation isn't really for you!\n         *      There are much more efficient and cleaner token contracts without RFI\n         *      so you should use one of those\n         *\n         * The value of fees is given in part per 1000 (based on the value of FEES_DIVISOR),\n         * e.g. for 5% use 50, for 3.5% use 35, etc.\n         */\n        _addFee(FeeType.Rfi, 10, address(this));\n\n        _addFee(FeeType.Burn, 5, burnAddress);\n        _addFee(FeeType.Liquidity, 20, address(this));\n        _addFee(FeeType.External, 5, charityAddress);\n        _addFee(FeeType.External, 18, ventureCapitalAddress);\n\n        // 0.1% as a tip to the devs kids\n        _addFee(FeeType.ExternalToETH, 1, tip1);\n        _addFee(FeeType.ExternalToETH, 1, tip2);\n    }\n\n    function _getFeesCount() internal view returns (uint256) {\n        return fees.length;\n    }\n\n    function _getFeeStruct(uint256 index) private view returns (Fee storage) {\n        require(\n            index >= 0 && index < fees.length,\n            \"FeesSettings._getFeeStruct: Fee index out of bounds\"\n        );\n        return fees[index];\n    }\n\n    function _getFee(uint256 index)\n        internal\n        view\n        returns (\n            FeeType,\n            uint256,\n            address,\n            uint256\n        )\n    {\n        Fee memory fee = _getFeeStruct(index);\n        return (fee.name, fee.value, fee.recipient, fee.total);\n    }\n\n    function _addFeeCollectedAmount(uint256 index, uint256 amount) internal {\n        Fee storage fee = _getFeeStruct(index);\n        fee.total = fee.total.add(amount);\n    }\n\n    // function getCollectedFeeTotal(uint256 index) external view returns (uint256){\n    function getCollectedFeeTotal(uint256 index)\n        internal\n        view\n        returns (uint256)\n    {\n        Fee memory fee = _getFeeStruct(index);\n        return fee.total;\n    }\n}\n\nabstract contract Presaleable is Manageable {\n    bool internal isInPresale;\n\n    function setPreseableEnabled(bool value) external onlyManager {\n        isInPresale = value;\n    }\n}\n\nabstract contract BaseRfiToken is\n    IERC20,\n    IERC20Metadata,\n    Ownable,\n    Presaleable,\n    Tokenomics\n{\n    using SafeMath for uint256;\n    using Address for address;\n\n    mapping(address => uint256) internal _reflectedBalances;\n    mapping(address => uint256) internal _balances;\n    mapping(address => mapping(address => uint256)) internal _allowances;\n\n    mapping(address => bool) internal _isExcludedFromFee;\n    mapping(address => bool) internal _isExcludedFromRewards;\n    address[] private _excluded;\n\n    constructor() {\n        _reflectedBalances[owner()] = _reflectedSupply;\n\n        // exclude owner and this contract from fee\n        _isExcludedFromFee[owner()] = true;\n        _isExcludedFromFee[address(this)] = true;\n\n        // exclude the owner and this contract from rewards\n        _exclude(owner());\n        _exclude(address(this));\n\n        emit Transfer(address(0), owner(), TOTAL_SUPPLY);\n    }\n\n    /** Functions required by IERC20Metadat **/\n    function name() external pure override returns (string memory) {\n        return NAME;\n    }\n\n    function symbol() external pure override returns (string memory) {\n        return SYMBOL;\n    }\n\n    function decimals() external pure override returns (uint8) {\n        return DECIMALS;\n    }\n\n    /** Functions required by IERC20Metadat - END **/\n    /** Functions required by IERC20 **/\n    function totalSupply() external pure override returns (uint256) {\n        return TOTAL_SUPPLY;\n    }\n\n    function balanceOf(address account) public view override returns (uint256) {\n        if (_isExcludedFromRewards[account]) return _balances[account];\n        return tokenFromReflection(_reflectedBalances[account]);\n    }\n\n    function transfer(address recipient, uint256 amount)\n        external\n        override\n        returns (bool)\n    {\n        _transfer(_msgSender(), recipient, amount);\n        return true;\n    }\n\n    function allowance(address owner, address spender)\n        external\n        view\n        override\n        returns (uint256)\n    {\n        return _allowances[owner][spender];\n    }\n\n    function approve(address spender, uint256 amount)\n        external\n        override\n        returns (bool)\n    {\n        _approve(_msgSender(), spender, amount);\n        return true;\n    }\n\n    function transferFrom(\n        address sender,\n        address recipient,\n        uint256 amount\n    ) external override returns (bool) {\n        _transfer(sender, recipient, amount);\n        _approve(\n            sender,\n            _msgSender(),\n            _allowances[sender][_msgSender()].sub(\n                amount,\n                \"ERC20: transfer amount exceeds allowance\"\n            )\n        );\n        return true;\n    }\n\n    /** Functions required by IERC20 - END **/\n\n    /**\n     * @dev this is really a \"soft\" burn (total supply is not reduced). RFI holders\n     * get two benefits from burning tokens:\n     *\n     * 1) Tokens in the burn address increase the % of tokens held by holders not\n     *    excluded from rewards (assuming the burn address is excluded)\n     * 2) Tokens in the burn address cannot be sold (which in turn draing the\n     *    liquidity pool)\n     *\n     *\n     * In RFI holders already get % of each transaction so the value of their tokens\n     * increases (in a way). Therefore there is really no need to do a \"hard\" burn\n     * (reduce the total supply). What matters (in RFI) is to make sure that a large\n     * amount of tokens cannot be sold = draining the liquidity pool = lowering the\n     * value of tokens holders own. For this purpose, transfering tokens to a (vanity)\n     * burn address is the most appropriate way to \"burn\".\n     *\n     * There is an extra check placed into the `transfer` function to make sure the\n     * burn address cannot withdraw the tokens is has (although the chance of someone\n     * having/finding the private key is virtually zero).\n     */\n    function burn(uint256 amount) external {\n        address sender = _msgSender();\n        require(\n            sender != address(0),\n            \"BaseRfiToken: burn from the zero address\"\n        );\n        require(\n            sender != address(burnAddress),\n            \"BaseRfiToken: burn from the burn address\"\n        );\n\n        uint256 balance = balanceOf(sender);\n        require(balance >= amount, \"BaseRfiToken: burn amount exceeds balance\");\n\n        uint256 reflectedAmount = amount.mul(_getCurrentRate());\n\n        // remove the amount from the sender's balance first\n        _reflectedBalances[sender] = _reflectedBalances[sender].sub(\n            reflectedAmount\n        );\n        if (_isExcludedFromRewards[sender])\n            _balances[sender] = _balances[sender].sub(amount);\n\n        _burnTokens(sender, amount, reflectedAmount);\n    }\n\n    /**\n     * @dev \"Soft\" burns the specified amount of tokens by sending them\n     * to the burn address\n     */\n    function _burnTokens(\n        address sender,\n        uint256 tBurn,\n        uint256 rBurn\n    ) internal {\n        /**\n         * @dev Do not reduce _totalSupply and/or _reflectedSupply. (soft) burning by sending\n         * tokens to the burn address (which should be excluded from rewards) is sufficient\n         * in RFI\n         */\n        _reflectedBalances[burnAddress] = _reflectedBalances[burnAddress].add(\n            rBurn\n        );\n        if (_isExcludedFromRewards[burnAddress])\n            _balances[burnAddress] = _balances[burnAddress].add(tBurn);\n\n        /**\n         * @dev Emit the event so that the burn address balance is updated (on bscscan)\n         */\n        emit Transfer(sender, burnAddress, tBurn);\n    }\n\n    function increaseAllowance(address spender, uint256 addedValue)\n        public\n        virtual\n        returns (bool)\n    {\n        _approve(\n            _msgSender(),\n            spender,\n            _allowances[_msgSender()][spender].add(addedValue)\n        );\n        return true;\n    }\n\n    function decreaseAllowance(address spender, uint256 subtractedValue)\n        public\n        virtual\n        returns (bool)\n    {\n        _approve(\n            _msgSender(),\n            spender,\n            _allowances[_msgSender()][spender].sub(\n                subtractedValue,\n                \"ERC20: decreased allowance below zero\"\n            )\n        );\n        return true;\n    }\n\n    function isExcludedFromReward(address account)\n        external\n        view\n        returns (bool)\n    {\n        return _isExcludedFromRewards[account];\n    }\n\n    /**\n     * @dev Calculates and returns the reflected amount for the given amount with or without\n     * the transfer fees (deductTransferFee true/false)\n     */\n    function reflectionFromToken(uint256 tAmount, bool deductTransferFee)\n        external\n        view\n        returns (uint256)\n    {\n        require(tAmount <= TOTAL_SUPPLY, \"Amount must be less than supply\");\n        if (!deductTransferFee) {\n            (uint256 rAmount, , , , ) = _getValues(tAmount, 0);\n            return rAmount;\n        } else {\n            (, uint256 rTransferAmount, , , ) = _getValues(\n                tAmount,\n                _getSumOfFees(_msgSender(), tAmount)\n            );\n            return rTransferAmount;\n        }\n    }\n\n    /**\n     * @dev Calculates and returns the amount of tokens corresponding to the given reflected amount.\n     */\n    function tokenFromReflection(uint256 rAmount)\n        internal\n        view\n        returns (uint256)\n    {\n        require(\n            rAmount <= _reflectedSupply,\n            \"Amount must be less than total reflections\"\n        );\n        uint256 currentRate = _getCurrentRate();\n        return rAmount.div(currentRate);\n    }\n\n    function excludeFromReward(address account) external onlyOwner() {\n        require(!_isExcludedFromRewards[account], \"Account is not included\");\n        _exclude(account);\n    }\n\n    function _exclude(address account) internal {\n        if (_reflectedBalances[account] > 0) {\n            _balances[account] = tokenFromReflection(\n                _reflectedBalances[account]\n            );\n        }\n        _isExcludedFromRewards[account] = true;\n        _excluded.push(account);\n    }\n\n    function includeInReward(address account) external onlyOwner() {\n        require(_isExcludedFromRewards[account], \"Account is not excluded\");\n        for (uint256 i = 0; i < _excluded.length; i++) {\n            if (_excluded[i] == account) {\n                _excluded[i] = _excluded[_excluded.length - 1];\n                _balances[account] = 0;\n                _isExcludedFromRewards[account] = false;\n                _excluded.pop();\n                break;\n            }\n        }\n    }\n\n    function setExcludedFromFee(address account, bool value)\n        external\n        onlyOwner\n    {\n        _isExcludedFromFee[account] = value;\n    }\n\n    function isExcludedFromFee(address account) public view returns (bool) {\n        return _isExcludedFromFee[account];\n    }\n\n    function _approve(\n        address owner,\n        address spender,\n        uint256 amount\n    ) internal {\n        require(\n            owner != address(0),\n            \"BaseRfiToken: approve from the zero address\"\n        );\n        require(\n            spender != address(0),\n            \"BaseRfiToken: approve to the zero address\"\n        );\n\n        _allowances[owner][spender] = amount;\n        emit Approval(owner, spender, amount);\n    }\n\n    /**\n     */\n    function _isUnlimitedSender(address account) internal view returns (bool) {\n        // the owner should be the only whitelisted sender\n        return (account == owner());\n    }\n\n    /**\n     */\n    function _isUnlimitedRecipient(address account)\n        internal\n        view\n        returns (bool)\n    {\n        // the owner should be a white-listed recipient\n        // and anyone should be able to burn as many tokens as\n        // he/she wants\n        return (account == owner() || account == burnAddress);\n    }\n\n    function _transfer(\n        address sender,\n        address recipient,\n        uint256 amount\n    ) private {\n        require(\n            sender != address(0),\n            \"BaseRfiToken: transfer from the zero address\"\n        );\n        require(\n            recipient != address(0),\n            \"BaseRfiToken: transfer to the zero address\"\n        );\n        require(\n            sender != address(burnAddress),\n            \"BaseRfiToken: transfer from the burn address\"\n        );\n        require(amount > 0, \"Transfer amount must be greater than zero\");\n\n        // indicates whether or not feee should be deducted from the transfer\n        bool takeFee = true;\n\n        if (isInPresale) {\n            takeFee = false;\n        } else {\n            /**\n             * Check the amount is within the max allowed limit as long as a\n             * unlimited sender/recepient is not involved in the transaction\n             */\n            if (\n                amount > maxTransactionAmount &&\n                !_isUnlimitedSender(sender) &&\n                !_isUnlimitedRecipient(recipient)\n            ) {\n                revert(\"Transfer amount exceeds the maxTxAmount.\");\n            }\n            /**\n             * The pair needs to excluded from the max wallet balance check;\n             * selling tokens is sending them back to the pair (without this\n             * check, selling tokens would not work if the pair's balance\n             * was over the allowed max)\n             *\n             * Note: This does NOT take into account the fees which will be deducted\n             *       from the amount. As such it could be a bit confusing\n             */\n            if (\n                maxWalletBalance > 0 &&\n                !_isUnlimitedSender(sender) &&\n                !_isUnlimitedRecipient(recipient) &&\n                !_isV2Pair(recipient)\n            ) {\n                uint256 recipientBalance = balanceOf(recipient);\n                require(\n                    recipientBalance + amount <= maxWalletBalance,\n                    \"New balance would exceed the maxWalletBalance\"\n                );\n            }\n        }\n\n        // if any account belongs to _isExcludedFromFee account then remove the fee\n        if (_isExcludedFromFee[sender] || _isExcludedFromFee[recipient]) {\n            takeFee = false;\n        }\n\n        _beforeTokenTransfer(sender, recipient, amount, takeFee);\n        _transferTokens(sender, recipient, amount, takeFee);\n    }\n\n    function _transferTokens(\n        address sender,\n        address recipient,\n        uint256 amount,\n        bool takeFee\n    ) private {\n        /**\n         * We don't need to know anything about the individual fees here\n         * (like Safemoon does with `_getValues`). All that is required\n         * for the transfer is the sum of all fees to calculate the % of the total\n         * transaction amount which should be transferred to the recipient.\n         *\n         * The `_takeFees` call will/should take care of the individual fees\n         */\n        uint256 sumOfFees = _getSumOfFees(sender, amount);\n        if (!takeFee) {\n            sumOfFees = 0;\n        }\n\n        (\n            uint256 rAmount,\n            uint256 rTransferAmount,\n            uint256 tAmount,\n            uint256 tTransferAmount,\n            uint256 currentRate\n        ) = _getValues(amount, sumOfFees);\n\n        /**\n         * Sender's and Recipient's reflected balances must be always updated regardless of\n         * whether they are excluded from rewards or not.\n         */\n        _reflectedBalances[sender] = _reflectedBalances[sender].sub(rAmount);\n        _reflectedBalances[recipient] = _reflectedBalances[recipient].add(\n            rTransferAmount\n        );\n\n        /**\n         * Update the true/nominal balances for excluded accounts\n         */\n        if (_isExcludedFromRewards[sender]) {\n            _balances[sender] = _balances[sender].sub(tAmount);\n        }\n        if (_isExcludedFromRewards[recipient]) {\n            _balances[recipient] = _balances[recipient].add(tTransferAmount);\n        }\n\n        _takeFees(amount, currentRate, sumOfFees);\n        emit Transfer(sender, recipient, tTransferAmount);\n    }\n\n    function _takeFees(\n        uint256 amount,\n        uint256 currentRate,\n        uint256 sumOfFees\n    ) private {\n        if (sumOfFees > 0 && !isInPresale) {\n            _takeTransactionFees(amount, currentRate);\n        }\n    }\n\n    function _getValues(uint256 tAmount, uint256 feesSum)\n        internal\n        view\n        returns (\n            uint256,\n            uint256,\n            uint256,\n            uint256,\n            uint256\n        )\n    {\n        uint256 tTotalFees = tAmount.mul(feesSum).div(FEES_DIVISOR);\n        uint256 tTransferAmount = tAmount.sub(tTotalFees);\n        uint256 currentRate = _getCurrentRate();\n        uint256 rAmount = tAmount.mul(currentRate);\n        uint256 rTotalFees = tTotalFees.mul(currentRate);\n        uint256 rTransferAmount = rAmount.sub(rTotalFees);\n\n        return (\n            rAmount,\n            rTransferAmount,\n            tAmount,\n            tTransferAmount,\n            currentRate\n        );\n    }\n\n    function _getCurrentRate() internal view returns (uint256) {\n        (uint256 rSupply, uint256 tSupply) = _getCurrentSupply();\n        return rSupply.div(tSupply);\n    }\n\n    function _getCurrentSupply() internal view returns (uint256, uint256) {\n        uint256 rSupply = _reflectedSupply;\n        uint256 tSupply = TOTAL_SUPPLY;\n\n        /**\n         * The code below removes balances of addresses excluded from rewards from\n         * rSupply and tSupply, which effectively increases the % of transaction fees\n         * delivered to non-excluded holders\n         */\n        for (uint256 i = 0; i < _excluded.length; i++) {\n            if (\n                _reflectedBalances[_excluded[i]] > rSupply ||\n                _balances[_excluded[i]] > tSupply\n            ) return (_reflectedSupply, TOTAL_SUPPLY);\n            rSupply = rSupply.sub(_reflectedBalances[_excluded[i]]);\n            tSupply = tSupply.sub(_balances[_excluded[i]]);\n        }\n        if (tSupply == 0 || rSupply < _reflectedSupply.div(TOTAL_SUPPLY))\n            return (_reflectedSupply, TOTAL_SUPPLY);\n        return (rSupply, tSupply);\n    }\n\n    /**\n     * @dev Hook that is called before any transfer of tokens.\n     */\n    function _beforeTokenTransfer(\n        address sender,\n        address recipient,\n        uint256 amount,\n        bool takeFee\n    ) internal virtual;\n\n    /**\n     * @dev Returns the total sum of fees to be processed in each transaction.\n     *\n     * To separate concerns this contract (class) will take care of ONLY handling RFI, i.e.\n     * changing the rates and updating the holder's balance (via `_redistribute`).\n     * It is the responsibility of the dev/user to handle all other fees and taxes\n     * in the appropriate contracts (classes).\n     */\n    function _getSumOfFees(address sender, uint256 amount)\n        internal\n        view\n        virtual\n        returns (uint256);\n\n    /**\n     * @dev A delegate which should return true if the given address is the V2 Pair and false otherwise\n     */\n    function _isV2Pair(address account) internal view virtual returns (bool);\n\n    /**\n     * @dev Redistributes the specified amount among the current holders via the reflect.finance\n     * algorithm, i.e. by updating the _reflectedSupply (_rSupply) which ultimately adjusts the\n     * current rate used by `tokenFromReflection` and, in turn, the value returns from `balanceOf`.\n     * This is the bit of clever math which allows rfi to redistribute the fee without\n     * having to iterate through all holders.\n     *\n     * Visit our discord at https://discord.gg/dAmr6eUTpM\n     */\n    function _redistribute(\n        uint256 amount,\n        uint256 currentRate,\n        uint256 fee,\n        uint256 index\n    ) internal {\n        uint256 tFee = amount.mul(fee).div(FEES_DIVISOR);\n        uint256 rFee = tFee.mul(currentRate);\n\n        _reflectedSupply = _reflectedSupply.sub(rFee);\n        _addFeeCollectedAmount(index, tFee);\n    }\n\n    /**\n     * @dev Hook that is called before the `Transfer` event is emitted if fees are enabled for the transfer\n     */\n    function _takeTransactionFees(uint256 amount, uint256 currentRate)\n        internal\n        virtual;\n}\n\nabstract contract Liquifier is Ownable, Manageable {\n    using SafeMath for uint256;\n\n    uint256 private withdrawableBalance;\n\n    enum Env {\n        Testnet,\n        MainnetV1,\n        MainnetV2\n    }\n    Env private _env;\n\n    // PancakeSwap V1\n    address private _mainnetRouterV1Address =\n        0x05fF2B0DB69458A0750badebc4f9e13aDd608C7F;\n    // PancakeSwap V2\n    address private _mainnetRouterV2Address =\n        0x10ED43C718714eb63d5aA57B78B54704E256024E;\n    // Testnet\n    // address private _testnetRouterAddress = 0xD99D1c33F9fC3444f8101754aBC46c52416550D1;\n    // PancakeSwap Testnet = https://pancake.kiemtienonline360.com/\n    address private _testnetRouterAddress =\n        0x9Ac64Cc6e4415144C455BD8E4837Fea55603e5c3;\n\n    IPancakeV2Router internal _router;\n    address internal _pair;\n\n    bool private inSwapAndLiquify;\n    bool private swapAndLiquifyEnabled = true;\n\n    uint256 private maxTransactionAmount;\n    uint256 private numberOfTokensToSwapToLiquidity;\n\n    modifier lockTheSwap {\n        inSwapAndLiquify = true;\n        _;\n        inSwapAndLiquify = false;\n    }\n\n    event RouterSet(address indexed router);\n    event SwapAndLiquify(\n        uint256 tokensSwapped,\n        uint256 ethReceived,\n        uint256 tokensIntoLiquidity\n    );\n    event SwapAndLiquifyEnabledUpdated(bool enabled);\n    event LiquidityAdded(\n        uint256 tokenAmountSent,\n        uint256 ethAmountSent,\n        uint256 liquidity\n    );\n\n    receive() external payable {}\n\n    function initializeLiquiditySwapper(\n        Env env,\n        uint256 maxTx,\n        uint256 liquifyAmount\n    ) internal {\n        _env = env;\n        if (_env == Env.MainnetV1) {\n            _setRouterAddress(_mainnetRouterV1Address);\n        } else if (_env == Env.MainnetV2) {\n            _setRouterAddress(_mainnetRouterV2Address);\n        }\n        /*(_env == Env.Testnet)*/\n        else {\n            _setRouterAddress(_testnetRouterAddress);\n        }\n\n        maxTransactionAmount = maxTx;\n        numberOfTokensToSwapToLiquidity = liquifyAmount;\n    }\n\n    /**\n     * NOTE: passing the `contractTokenBalance` here is preferred to creating `balanceOfDelegate`\n     */\n    function liquify(uint256 contractTokenBalance, address sender) internal {\n        if (contractTokenBalance >= maxTransactionAmount)\n            contractTokenBalance = maxTransactionAmount;\n\n        bool isOverRequiredTokenBalance = (contractTokenBalance >=\n            numberOfTokensToSwapToLiquidity);\n\n        /**\n         * - first check if the contract has collected enough tokens to swap and liquify\n         * - then check swap and liquify is enabled\n         * - then make sure not to get caught in a circular liquidity event\n         * - finally, don't swap & liquify if the sender is the uniswap pair\n         */\n        if (\n            isOverRequiredTokenBalance &&\n            swapAndLiquifyEnabled &&\n            !inSwapAndLiquify &&\n            (sender != _pair)\n        ) {\n            // TODO check if the `(sender != _pair)` is necessary because that basically\n            // stops swap and liquify for all \"buy\" transactions\n            _swapAndLiquify(contractTokenBalance);\n        }\n    }\n\n    /**\n     * @dev sets the router address and created the router, factory pair to enable\n     * swapping and liquifying (contract) tokens\n     */\n    function _setRouterAddress(address router) private {\n        IPancakeV2Router _newPancakeRouter = IPancakeV2Router(router);\n        _pair = IPancakeV2Factory(_newPancakeRouter.factory()).createPair(\n            address(this),\n            _newPancakeRouter.WETH()\n        );\n        _router = _newPancakeRouter;\n        emit RouterSet(router);\n    }\n\n    function _swapAndLiquify(uint256 amount) private lockTheSwap {\n        // split the contract balance into halves\n        uint256 half = amount.div(2);\n        uint256 otherHalf = amount.sub(half);\n\n        // capture the contract's current ETH balance.\n        // this is so that we can capture exactly the amount of ETH that the\n        // swap creates, and not make the liquidity event include any ETH that\n        // has been manually sent to the contract\n        uint256 initialBalance = address(this).balance;\n\n        // swap tokens for ETH\n        _swapTokensForEth(half); // <- this breaks the ETH -> HATE swap when swap+liquify is triggered\n\n        // how much ETH did we just swap into?\n        uint256 newBalance = address(this).balance.sub(initialBalance);\n\n        // add liquidity to uniswap\n        _addLiquidity(otherHalf, newBalance);\n\n        emit SwapAndLiquify(half, newBalance, otherHalf);\n    }\n\n    function _swapTokensForEth(uint256 tokenAmount) private {\n        // generate the uniswap pair path of token -> weth\n        address[] memory path = new address[](2);\n        path[0] = address(this);\n        path[1] = _router.WETH();\n\n        _approveDelegate(address(this), address(_router), tokenAmount);\n\n        // make the swap\n        _router.swapExactTokensForETHSupportingFeeOnTransferTokens(\n            tokenAmount,\n            // The minimum amount of output tokens that must be received for the transaction not to revert.\n            // 0 = accept any amount (slippage is inevitable)\n            0,\n            path,\n            address(this),\n            block.timestamp\n        );\n    }\n\n    function _addLiquidity(uint256 tokenAmount, uint256 ethAmount) private {\n        // approve token transfer to cover all possible scenarios\n        _approveDelegate(address(this), address(_router), tokenAmount);\n\n        // add tahe liquidity\n        (\n            uint256 tokenAmountSent,\n            uint256 ethAmountSent,\n            uint256 liquidity\n        ) = _router.addLiquidityETH{value: ethAmount}(\n            address(this),\n            tokenAmount,\n            // Bounds the extent to which the WETH/token price can go up before the transaction reverts.\n            // Must be <= amountTokenDesired; 0 = accept any amount (slippage is inevitable)\n            0,\n            // Bounds the extent to which the token/WETH price can go up before the transaction reverts.\n            // 0 = accept any amount (slippage is inevitable)\n            0,\n            // this is a centralized risk if the owner's account is ever compromised (see Certik SSL-04)\n            owner(),\n            block.timestamp\n        );\n\n        // fix the forever locked BNBs as per the certik's audit\n        /**\n         * The swapAndLiquify function converts half of the contractTokenBalance SafeMoon tokens to BNB.\n         * For every swapAndLiquify function call, a small amount of BNB remains in the contract.\n         * This amount grows over time with the swapAndLiquify function being called throughout the life\n         * of the contract. The Safemoon contract does not contain a method to withdraw these funds,\n         * and the BNB will be locked in the Safemoon contract forever.\n         */\n        withdrawableBalance = address(this).balance;\n        emit LiquidityAdded(tokenAmountSent, ethAmountSent, liquidity);\n    }\n\n    /**\n     * @dev Sets the uniswapV2 pair (router & factory) for swapping and liquifying tokens\n     */\n    function setRouterAddress(address router) external onlyManager() {\n        _setRouterAddress(router);\n    }\n\n    /**\n     * @dev Sends the swap and liquify flag to the provided value. If set to `false` tokens collected in the contract will\n     * NOT be converted into liquidity.\n     */\n    function setSwapAndLiquifyEnabled(bool enabled) external onlyManager {\n        swapAndLiquifyEnabled = enabled;\n        emit SwapAndLiquifyEnabledUpdated(swapAndLiquifyEnabled);\n    }\n\n    /**\n     * @dev The owner can withdraw ETH(BNB) collected in the contract from `swapAndLiquify`\n     * or if someone (accidentally) sends ETH/BNB directly to the contract.\n     *\n     * Note: This addresses the contract flaw pointed out in the Certik Audit of Safemoon (SSL-03):\n     *\n     * The swapAndLiquify function converts half of the contractTokenBalance SafeMoon tokens to BNB.\n     * For every swapAndLiquify function call, a small amount of BNB remains in the contract.\n     * This amount grows over time with the swapAndLiquify function being called\n     * throughout the life of the contract. The Safemoon contract does not contain a method\n     * to withdraw these funds, and the BNB will be locked in the Safemoon contract forever.\n     * https://www.certik.org/projects/safemoon\n     */\n    function withdrawLockedEth(address payable recipient)\n        external\n        onlyManager()\n    {\n        require(\n            recipient != address(0),\n            \"Cannot withdraw the ETH balance to the zero address\"\n        );\n        require(\n            withdrawableBalance > 0,\n            \"The ETH balance must be greater than 0\"\n        );\n\n        // prevent re-entrancy attacks\n        uint256 amount = withdrawableBalance;\n        withdrawableBalance = 0;\n        recipient.transfer(amount);\n    }\n\n    /**\n     * @dev Use this delegate instead of having (unnecessarily) extend `BaseRfiToken` to gained access\n     * to the `_approve` function.\n     */\n    function _approveDelegate(\n        address owner,\n        address spender,\n        uint256 amount\n    ) internal virtual;\n}\n\n//////////////////////////////////////////////////////////////////////////\nabstract contract Antiwhale is Tokenomics {\n    /**\n     * @dev Returns the total sum of fees (in percents / per-mille - this depends on the FEES_DIVISOR value)\n     *\n     * NOTE: Currently this is just a placeholder. The parameters passed to this function are the\n     *      sender's token balance and the transfer amount. An *antiwhale* mechanics can use these\n     *      values to adjust the fees total for each tx\n     */\n    // function _getAntiwhaleFees(uint256 sendersBalance, uint256 amount) internal view returns (uint256){\n    function _getAntiwhaleFees(uint256, uint256)\n        internal\n        view\n        returns (uint256)\n    {\n        return sumOfFees;\n    }\n}\n\n//////////////////////////////////////////////////////////////////////////\n\nabstract contract SafeToken is BaseRfiToken, Liquifier, Antiwhale {\n    using SafeMath for uint256;\n\n    // constructor(string memory _name, string memory _symbol, uint8 _decimals){\n    constructor(Env _env) {\n        initializeLiquiditySwapper(\n            _env,\n            maxTransactionAmount,\n            numberOfTokensToSwapToLiquidity\n        );\n        // exclude the pair address from rewards - we don't want to redistribute\n        // tx fees to these two; redistribution is only for holders, dah!\n        _exclude(_pair);\n        _exclude(burnAddress);\n    }\n\n    function _isV2Pair(address account) internal view override returns (bool) {\n        return (account == _pair);\n    }\n\n    function _getSumOfFees(address sender, uint256 amount)\n        internal\n        view\n        override\n        returns (uint256)\n    {\n        return _getAntiwhaleFees(balanceOf(sender), amount);\n    }\n\n    // function _beforeTokenTransfer(address sender, address recipient, uint256 amount, bool takeFee) internal override {\n    function _beforeTokenTransfer(\n        address sender,\n        address,\n        uint256,\n        bool\n    ) internal override {\n        if (!isInPresale) {\n            uint256 contractTokenBalance = balanceOf(address(this));\n            liquify(contractTokenBalance, sender);\n        }\n    }\n\n    function _takeTransactionFees(uint256 amount, uint256 currentRate)\n        internal\n        override\n    {\n        if (isInPresale) {\n            return;\n        }\n\n        uint256 feesCount = _getFeesCount();\n\n        for (uint256 index = 0; index < feesCount; index++) {\n            (FeeType name, uint256 value, address recipient, ) = _getFee(index);\n            // no need to check value < 0 as the value is uint (i.e. from 0 to 2^256-1)\n            if (value == 0) continue;\n\n            if (name == FeeType.Rfi) {\n                _redistribute(amount, currentRate, value, index);\n            } else if (name == FeeType.Burn) {\n                _burn(amount, currentRate, value, index);\n            } else if (name == FeeType.Antiwhale) {\n                // TODO\n            } else if (name == FeeType.ExternalToETH) {\n                _takeFeeToETH(amount, currentRate, value, recipient, index);\n            } else {\n                _takeFee(amount, currentRate, value, recipient, index);\n            }\n        }\n    }\n\n    function _burn(\n        uint256 amount,\n        uint256 currentRate,\n        uint256 fee,\n        uint256 index\n    ) private {\n        uint256 tBurn = amount.mul(fee).div(FEES_DIVISOR);\n        uint256 rBurn = tBurn.mul(currentRate);\n\n        _burnTokens(address(this), tBurn, rBurn);\n        _addFeeCollectedAmount(index, tBurn);\n    }\n\n    function _takeFee(\n        uint256 amount,\n        uint256 currentRate,\n        uint256 fee,\n        address recipient,\n        uint256 index\n    ) private {\n        uint256 tAmount = amount.mul(fee).div(FEES_DIVISOR);\n        uint256 rAmount = tAmount.mul(currentRate);\n\n        _reflectedBalances[recipient] = _reflectedBalances[recipient].add(\n            rAmount\n        );\n        if (_isExcludedFromRewards[recipient])\n            _balances[recipient] = _balances[recipient].add(tAmount);\n\n        _addFeeCollectedAmount(index, tAmount);\n    }\n\n    /**\n     * @dev When implemented this will convert the fee amount of tokens into ETH/BNB\n     * and send to the recipient's wallet. Note that this reduces liquidity so it\n     * might be a good idea to add a % into the liquidity fee for % you take our through\n     * this method (just a suggestions)\n     */\n    function _takeFeeToETH(\n        uint256 amount,\n        uint256 currentRate,\n        uint256 fee,\n        address recipient,\n        uint256 index\n    ) private {\n        _takeFee(amount, currentRate, fee, recipient, index);\n    }\n\n    function _approveDelegate(\n        address owner,\n        address spender,\n        uint256 amount\n    ) internal override {\n        _approve(owner, spender, amount);\n    }\n}\n\ncontract MyToken is SafeToken {\n    constructor() SafeToken(Env.Testnet) {\n        // pre-approve the initial liquidity supply (to save a bit of time)\n        _approve(owner(), address(_router), ~uint256(0));\n    }\n}\n\n/**\n * Todo (beta):\n *\n * - reorganize the sol file(s) to make put everything editable in a single .sol file\n *      and keep all other code in other .sol file(s)\n * - move variable values initialized in the contract to be constructor parameters\n * - add/remove setters/getter where appropriate\n * - add unit tests (via ganache-cli + truffle)\n * - add full dev evn (truffle) folders & files\n *\n * Todo:\n *\n * - implement `_takeFeeToETH` (currently just calls `_takeFee`)\n * - implement anti whale mechanics (via different pre-created libraries?), eg progressive tax\n * - implement anti sell mechanics\n * - address SSL-04 | Centralized risk in addLiquidity - https://www.certik.org/projects/safemoon\n *      change the recipient to `address(this)` or implement a decentralized mechanism or\n *      smart-contract solution\n * - change Uniswap to PancakeSwap in contract/interface names and local var names\n * - change ETH to BNB in names and comments\n */\n\n/**\n * Tests to pass:\n *\n * - Tokenomics fees can be added/removed/edited\n * - Tokenomics fees are correctly taken from each (qualifying) transaction\n * - The RFI fee is correctly distributed among holders (which are not excluded from rewards)\n * - `swapAndLiquify` works correctly when the threshold balance is reached\n * - `maxTransactionAmount` works correctly and *unlimited* accounts are not subject to the limit\n * - `maxWalletBalance` works correctly and *unlimited* accounts are not subject to the limit\n * - accounts excluded from fees are not subjecto tx fees\n * - accounts excluded from rewards do not share in rewards\n * - ETH/BNB collected/stuck in the contract can be withdrawn (see)\n */\n",
  "sourcePath": "/Applications/MAMP/htdocs/blockchain/puppy-token/contracts/MyToken.sol",
  "compiler": {
    "name": "solc",
    "version": "0.8.4+commit.c7e474f2.Emscripten.clang"
  },
  "schemaVersion": "3.4.1",
  "updatedAt": "2021-07-01T21:51:27.112Z",
  "devdoc": {
    "kind": "dev",
    "methods": {
      "burn(uint256)": {
        "details": "this is really a \"soft\" burn (total supply is not reduced). RFI holders get two benefits from burning tokens: 1) Tokens in the burn address increase the % of tokens held by holders not    excluded from rewards (assuming the burn address is excluded) 2) Tokens in the burn address cannot be sold (which in turn draing the    liquidity pool) In RFI holders already get % of each transaction so the value of their tokens increases (in a way). Therefore there is really no need to do a \"hard\" burn (reduce the total supply). What matters (in RFI) is to make sure that a large amount of tokens cannot be sold = draining the liquidity pool = lowering the value of tokens holders own. For this purpose, transfering tokens to a (vanity) burn address is the most appropriate way to \"burn\". There is an extra check placed into the `transfer` function to make sure the burn address cannot withdraw the tokens is has (although the chance of someone having/finding the private key is virtually zero)."
      },
      "reflectionFromToken(uint256,bool)": {
        "details": "Calculates and returns the reflected amount for the given amount with or without the transfer fees (deductTransferFee true/false)"
      },
      "setRouterAddress(address)": {
        "details": "Sets the uniswapV2 pair (router & factory) for swapping and liquifying tokens"
      },
      "setSwapAndLiquifyEnabled(bool)": {
        "details": "Sends the swap and liquify flag to the provided value. If set to `false` tokens collected in the contract will NOT be converted into liquidity."
      },
      "withdrawLockedEth(address)": {
        "details": "The owner can withdraw ETH(BNB) collected in the contract from `swapAndLiquify` or if someone (accidentally) sends ETH/BNB directly to the contract. Note: This addresses the contract flaw pointed out in the Certik Audit of Safemoon (SSL-03): The swapAndLiquify function converts half of the contractTokenBalance SafeMoon tokens to BNB. For every swapAndLiquify function call, a small amount of BNB remains in the contract. This amount grows over time with the swapAndLiquify function being called throughout the life of the contract. The Safemoon contract does not contain a method to withdraw these funds, and the BNB will be locked in the Safemoon contract forever. https://www.certik.org/projects/safemoon"
      }
    },
    "version": 1
  },
  "userdoc": {
    "kind": "user",
    "methods": {
      "name()": {
        "notice": "Functions required by IERC20Metadat *"
      },
      "totalSupply()": {
        "notice": "Functions required by IERC20 *"
      }
    },
    "version": 1
  }
}